{
  "contractName": "CrowdfundingContract",
  "abi": [
    {
      "anonymous": false,
      "inputs": [
        {
          "indexed": false,
          "internalType": "string",
          "name": "msg",
          "type": "string"
        }
      ],
      "name": "Message",
      "type": "event"
    },
    {
      "anonymous": false,
      "inputs": [
        {
          "indexed": false,
          "internalType": "uint256",
          "name": "msg",
          "type": "uint256"
        }
      ],
      "name": "Message2",
      "type": "event"
    },
    {
      "constant": true,
      "inputs": [],
      "name": "company",
      "outputs": [
        {
          "internalType": "address payable",
          "name": "",
          "type": "address"
        }
      ],
      "payable": false,
      "stateMutability": "view",
      "type": "function"
    },
    {
      "constant": true,
      "inputs": [],
      "name": "endDate",
      "outputs": [
        {
          "internalType": "uint256",
          "name": "",
          "type": "uint256"
        }
      ],
      "payable": false,
      "stateMutability": "view",
      "type": "function"
    },
    {
      "constant": true,
      "inputs": [],
      "name": "goal",
      "outputs": [
        {
          "internalType": "uint256",
          "name": "",
          "type": "uint256"
        }
      ],
      "payable": false,
      "stateMutability": "view",
      "type": "function"
    },
    {
      "constant": true,
      "inputs": [
        {
          "internalType": "address",
          "name": "",
          "type": "address"
        }
      ],
      "name": "senderMap",
      "outputs": [
        {
          "internalType": "address payable",
          "name": "addr",
          "type": "address"
        },
        {
          "internalType": "uint256",
          "name": "date",
          "type": "uint256"
        },
        {
          "internalType": "uint256",
          "name": "val",
          "type": "uint256"
        }
      ],
      "payable": false,
      "stateMutability": "view",
      "type": "function"
    },
    {
      "constant": true,
      "inputs": [
        {
          "internalType": "uint256",
          "name": "",
          "type": "uint256"
        }
      ],
      "name": "senders",
      "outputs": [
        {
          "internalType": "address payable",
          "name": "addr",
          "type": "address"
        },
        {
          "internalType": "uint256",
          "name": "date",
          "type": "uint256"
        },
        {
          "internalType": "uint256",
          "name": "val",
          "type": "uint256"
        }
      ],
      "payable": false,
      "stateMutability": "view",
      "type": "function"
    },
    {
      "constant": true,
      "inputs": [],
      "name": "state",
      "outputs": [
        {
          "internalType": "string",
          "name": "",
          "type": "string"
        }
      ],
      "payable": false,
      "stateMutability": "view",
      "type": "function"
    },
    {
      "constant": true,
      "inputs": [],
      "name": "sum",
      "outputs": [
        {
          "internalType": "uint256",
          "name": "",
          "type": "uint256"
        }
      ],
      "payable": false,
      "stateMutability": "view",
      "type": "function"
    },
    {
      "constant": true,
      "inputs": [],
      "name": "title",
      "outputs": [
        {
          "internalType": "string",
          "name": "",
          "type": "string"
        }
      ],
      "payable": false,
      "stateMutability": "view",
      "type": "function"
    },
    {
      "constant": false,
      "inputs": [
        {
          "internalType": "string",
          "name": "input",
          "type": "string"
        }
      ],
      "name": "handle",
      "outputs": [],
      "payable": true,
      "stateMutability": "payable",
      "type": "function"
    },
    {
      "constant": true,
      "inputs": [
        {
          "internalType": "string",
          "name": "a",
          "type": "string"
        },
        {
          "internalType": "string",
          "name": "b",
          "type": "string"
        }
      ],
      "name": "isEqual",
      "outputs": [
        {
          "internalType": "bool",
          "name": "",
          "type": "bool"
        }
      ],
      "payable": false,
      "stateMutability": "pure",
      "type": "function"
    }
  ],
  "bytecode": "0x60806040526040518060400160405280600581526020017f5354415254000000000000000000000000000000000000000000000000000000815250600090805190602001906200005192919062000066565b503480156200005f57600080fd5b5062000115565b828054600181600116156101000203166002900490600052602060002090601f016020900481019282601f10620000a957805160ff1916838001178555620000da565b82800160010185558215620000da579182015b82811115620000d9578251825591602001919060010190620000bc565b5b509050620000e99190620000ed565b5090565b6200011291905b808211156200010e576000816000905550600101620000f4565b5090565b90565b611e8680620001256000396000f3fe6080604052600436106100915760003560e01c80636904c94d116100595780636904c94d14610422578063853255cc146104795780639977c78a146104a4578063c19d93fb1461052d578063c24a0f8b146105bd57610091565b80631a32916d14610096578063344ce0f81461015157806340193883146101f0578063465c41051461021b5780634a79d50c14610392575b600080fd5b61014f600480360360208110156100ac57600080fd5b81019080803590602001906401000000008111156100c957600080fd5b8201836020820111156100db57600080fd5b803590602001918460018302840111640100000000831117156100fd57600080fd5b91908080601f016020809104026020016040519081016040528093929190818152602001838380828437600081840152601f19601f8201169050808301925050505050505091929192905050506105e8565b005b34801561015d57600080fd5b506101a06004803603602081101561017457600080fd5b81019080803573ffffffffffffffffffffffffffffffffffffffff16906020019092919050505061169c565b604051808473ffffffffffffffffffffffffffffffffffffffff1673ffffffffffffffffffffffffffffffffffffffff168152602001838152602001828152602001935050505060405180910390f35b3480156101fc57600080fd5b506102056116e6565b6040518082815260200191505060405180910390f35b34801561022757600080fd5b506103786004803603604081101561023e57600080fd5b810190808035906020019064010000000081111561025b57600080fd5b82018360208201111561026d57600080fd5b8035906020019184600183028401116401000000008311171561028f57600080fd5b91908080601f016020809104026020016040519081016040528093929190818152602001838380828437600081840152601f19601f820116905080830192505050505050509192919290803590602001906401000000008111156102f257600080fd5b82018360208201111561030457600080fd5b8035906020019184600183028401116401000000008311171561032657600080fd5b91908080601f016020809104026020016040519081016040528093929190818152602001838380828437600081840152601f19601f8201169050808301925050505050505091929192905050506116ec565b604051808215151515815260200191505060405180910390f35b34801561039e57600080fd5b506103a76117db565b6040518080602001828103825283818151815260200191508051906020019080838360005b838110156103e75780820151818401526020810190506103cc565b50505050905090810190601f1680156104145780820380516001836020036101000a031916815260200191505b509250505060405180910390f35b34801561042e57600080fd5b50610437611879565b604051808273ffffffffffffffffffffffffffffffffffffffff1673ffffffffffffffffffffffffffffffffffffffff16815260200191505060405180910390f35b34801561048557600080fd5b5061048e61189f565b6040518082815260200191505060405180910390f35b3480156104b057600080fd5b506104dd600480360360208110156104c757600080fd5b81019080803590602001909291905050506118a5565b604051808473ffffffffffffffffffffffffffffffffffffffff1673ffffffffffffffffffffffffffffffffffffffff168152602001838152602001828152602001935050505060405180910390f35b34801561053957600080fd5b506105426118fc565b6040518080602001828103825283818151815260200191508051906020019080838360005b83811015610582578082015181840152602081019050610567565b50505050905090810190601f1680156105af5780820380516001836020036101000a031916815260200191505b509250505060405180910390f35b3480156105c957600080fd5b506105d261199a565b6040518082815260200191505060405180910390f35b6106c160008054600181600116156101000203166002900480601f0160208091040260200160405190810160405280929190818152602001828054600181600116156101000203166002900480156106815780601f1061065657610100808354040283529160200191610681565b820191906000526020600020905b81548152906001019060200180831161066457829003601f168201915b50505050506040518060400160405280600581526020017f53544152540000000000000000000000000000000000000000000000000000008152506116ec565b80156107085750610707816040518060400160405280600481526020017f696e6974000000000000000000000000000000000000000000000000000000008152506116ec565b5b1561081b576040518060400160405280600781526020017f435245415445440000000000000000000000000000000000000000000000000081525060009080519060200190610758929190611d75565b50730ad875cadf6cd921c5db2cdd3dddc24a8b61b2d3600360006101000a81548173ffffffffffffffffffffffffffffffffffffffff021916908373ffffffffffffffffffffffffffffffffffffffff160217905550650176f3ad75806004819055506040518060400160405280601081526020017f497267656e6465696e50726f6a656b740000000000000000000000000000000081525060059080519060200190610806929190611d75565b50678ac7230489e80000600681905550611699565b6108f460008054600181600116156101000203166002900480601f0160208091040260200160405190810160405280929190818152602001828054600181600116156101000203166002900480156108b45780601f10610889576101008083540402835291602001916108b4565b820191906000526020600020905b81548152906001019060200180831161089757829003601f168201915b50505050506040518060400160405280600781526020017f43524541544544000000000000000000000000000000000000000000000000008152506116ec565b801561093b575061093a816040518060400160405280600481526020017f7061792a000000000000000000000000000000000000000000000000000000008152506116ec565b5b801561094957506004544211155b8015610956575060065434105b156109fc57610963611df5565b60405180606001604052803373ffffffffffffffffffffffffffffffffffffffff16815260200142815260200134815250905061099f816119a0565b6040518060400160405280600781526020017f46554e44494e4700000000000000000000000000000000000000000000000000815250600090805190602001906109ea929190611d75565b50346007540160078190555050611698565b610ad560008054600181600116156101000203166002900480601f016020809104026020016040519081016040528092919081815260200182805460018160011615610100020316600290048015610a955780601f10610a6a57610100808354040283529160200191610a95565b820191906000526020600020905b815481529060010190602001808311610a7857829003601f168201915b50505050506040518060400160405280600781526020017f46554e44494e47000000000000000000000000000000000000000000000000008152506116ec565b8015610b1c5750610b1b816040518060400160405280600481526020017f7061792a000000000000000000000000000000000000000000000000000000008152506116ec565b5b8015610b2a57506004544211155b8015610b3b57506006543460075401105b15610be157610b48611df5565b60405180606001604052803373ffffffffffffffffffffffffffffffffffffffff168152602001428152602001348152509050610b84816119a0565b6040518060400160405280600781526020017f46554e44494e470000000000000000000000000000000000000000000000000081525060009080519060200190610bcf929190611d75565b50346007540160078190555050611697565b610cba60008054600181600116156101000203166002900480601f016020809104026020016040519081016040528092919081815260200182805460018160011615610100020316600290048015610c7a5780601f10610c4f57610100808354040283529160200191610c7a565b820191906000526020600020905b815481529060010190602001808311610c5d57829003601f168201915b50505050506040518060400160405280600781526020017f43524541544544000000000000000000000000000000000000000000000000008152506116ec565b8015610d015750610d00816040518060400160405280600481526020017f7061792a000000000000000000000000000000000000000000000000000000008152506116ec565b5b8015610d0f57506004544211155b8015610d1d57506006543410155b15610df357610d2a611df5565b60405180606001604052803373ffffffffffffffffffffffffffffffffffffffff168152602001428152602001348152509050610d66816119a0565b6040518060400160405280600a81526020017f5355434345535346554c0000000000000000000000000000000000000000000081525060009080519060200190610db1929190611d75565b50610de23460075401600360009054906101000a900473ffffffffffffffffffffffffffffffffffffffff16611bca565b346007540160078190555050611696565b610ecc60008054600181600116156101000203166002900480601f016020809104026020016040519081016040528092919081815260200182805460018160011615610100020316600290048015610e8c5780601f10610e6157610100808354040283529160200191610e8c565b820191906000526020600020905b815481529060010190602001808311610e6f57829003601f168201915b50505050506040518060400160405280600781526020017f43524541544544000000000000000000000000000000000000000000000000008152506116ec565b8015610f135750610f12816040518060400160405280600481526020017f7061792a000000000000000000000000000000000000000000000000000000008152506116ec565b5b8015610f20575060045442115b15610fc357610f2d611df5565b60405180606001604052803373ffffffffffffffffffffffffffffffffffffffff168152602001428152602001348152509050610f69816119a0565b6040518060400160405280600681526020017f4641494c4544000000000000000000000000000000000000000000000000000081525060009080519060200190610fb4929190611d75565b50610fbd611c8a565b50611695565b61109c60008054600181600116156101000203166002900480601f01602080910402602001604051908101604052809291908181526020018280546001816001161561010002031660029004801561105c5780601f106110315761010080835404028352916020019161105c565b820191906000526020600020905b81548152906001019060200180831161103f57829003601f168201915b50505050506040518060400160405280600781526020017f46554e44494e47000000000000000000000000000000000000000000000000008152506116ec565b80156110e357506110e2816040518060400160405280600481526020017f7061792a000000000000000000000000000000000000000000000000000000008152506116ec565b5b80156110f55750600654346007540110155b801561110357506004544211155b156111d957611110611df5565b60405180606001604052803373ffffffffffffffffffffffffffffffffffffffff16815260200142815260200134815250905061114c816119a0565b6040518060400160405280600a81526020017f5355434345535346554c0000000000000000000000000000000000000000000081525060009080519060200190611197929190611d75565b506111c83460075401600360009054906101000a900473ffffffffffffffffffffffffffffffffffffffff16611bca565b346007540160078190555050611694565b6112b260008054600181600116156101000203166002900480601f0160208091040260200160405190810160405280929190818152602001828054600181600116156101000203166002900480156112725780601f1061124757610100808354040283529160200191611272565b820191906000526020600020905b81548152906001019060200180831161125557829003601f168201915b50505050506040518060400160405280600781526020017f46554e44494e47000000000000000000000000000000000000000000000000008152506116ec565b80156112f957506112f8816040518060400160405280600481526020017f7061792a000000000000000000000000000000000000000000000000000000008152506116ec565b5b8015611306575060045442115b156113a957611313611df5565b60405180606001604052803373ffffffffffffffffffffffffffffffffffffffff16815260200142815260200134815250905061134f816119a0565b6040518060400160405280600681526020017f4641494c454400000000000000000000000000000000000000000000000000008152506000908051906020019061139a929190611d75565b506113a3611c8a565b50611693565b61148260008054600181600116156101000203166002900480601f0160208091040260200160405190810160405280929190818152602001828054600181600116156101000203166002900480156114425780601f1061141757610100808354040283529160200191611442565b820191906000526020600020905b81548152906001019060200180831161142557829003601f168201915b50505050506040518060400160405280600681526020017f4641494c454400000000000000000000000000000000000000000000000000008152506116ec565b80156114c957506114c8816040518060400160405280600481526020017f65786974000000000000000000000000000000000000000000000000000000008152506116ec565b5b1561151f576040518060400160405280600381526020017f454e44000000000000000000000000000000000000000000000000000000000081525060009080519060200190611519929190611d75565b50611692565b6115f860008054600181600116156101000203166002900480601f0160208091040260200160405190810160405280929190818152602001828054600181600116156101000203166002900480156115b85780601f1061158d576101008083540402835291602001916115b8565b820191906000526020600020905b81548152906001019060200180831161159b57829003601f168201915b50505050506040518060400160405280600a81526020017f5355434345535346554c000000000000000000000000000000000000000000008152506116ec565b801561163f575061163e816040518060400160405280600481526020017f65786974000000000000000000000000000000000000000000000000000000008152506116ec565b5b15611691576040518060400160405280600381526020017f454e4400000000000000000000000000000000000000000000000000000000008152506000908051906020019061168f929190611d75565b505b5b5b5b5b5b5b5b5b50565b60026020528060005260406000206000915090508060000160009054906101000a900473ffffffffffffffffffffffffffffffffffffffff16908060010154908060020154905083565b60065481565b6000816040516020018082805190602001908083835b602083106117255780518252602082019150602081019050602083039250611702565b6001836020036101000a03801982511681845116808217855250505050505090500191505060405160208183030381529060405280519060200120836040516020018082805190602001908083835b602083106117975780518252602082019150602081019050602083039250611774565b6001836020036101000a0380198251168184511680821785525050505050509050019150506040516020818303038152906040528051906020012014905092915050565b60058054600181600116156101000203166002900480601f0160208091040260200160405190810160405280929190818152602001828054600181600116156101000203166002900480156118715780601f1061184657610100808354040283529160200191611871565b820191906000526020600020905b81548152906001019060200180831161185457829003601f168201915b505050505081565b600360009054906101000a900473ffffffffffffffffffffffffffffffffffffffff1681565b60075481565b600181815481106118b257fe5b90600052602060002090600302016000915090508060000160009054906101000a900473ffffffffffffffffffffffffffffffffffffffff16908060010154908060020154905083565b60008054600181600116156101000203166002900480601f0160208091040260200160405190810160405280929190818152602001828054600181600116156101000203166002900480156119925780601f1061196757610100808354040283529160200191611992565b820191906000526020600020905b81548152906001019060200180831161197557829003601f168201915b505050505081565b60045481565b600073ffffffffffffffffffffffffffffffffffffffff1660026000836000015173ffffffffffffffffffffffffffffffffffffffff1673ffffffffffffffffffffffffffffffffffffffff16815260200190815260200160002060000160009054906101000a900473ffffffffffffffffffffffffffffffffffffffff1673ffffffffffffffffffffffffffffffffffffffff161415611b6e576001819080600181540180825580915050906001820390600052602060002090600302016000909192909190915060008201518160000160006101000a81548173ffffffffffffffffffffffffffffffffffffffff021916908373ffffffffffffffffffffffffffffffffffffffff16021790555060208201518160010155604082015181600201555050508060026000836000015173ffffffffffffffffffffffffffffffffffffffff1673ffffffffffffffffffffffffffffffffffffffff16815260200190815260200160002060008201518160000160006101000a81548173ffffffffffffffffffffffffffffffffffffffff021916908373ffffffffffffffffffffffffffffffffffffffff1602179055506020820151816001015560408201518160020155905050611bc7565b806040015160026000836000015173ffffffffffffffffffffffffffffffffffffffff1673ffffffffffffffffffffffffffffffffffffffff168152602001908152602001600020600201600082825401925050819055505b50565b814710611c1d578073ffffffffffffffffffffffffffffffffffffffff166108fc839081150290604051600060405180830381858888f19350505050158015611c17573d6000803e3d6000fd5b50611c86565b7f51a7f65c6325882f237d4aeb43228179cfad48b868511d508e24b4437a81913760405180806020018281038252601d8152602001807f62616c616e6365206f6620636f6e7472616374206e6f20656e6f75676800000081525060200191505060405180910390a15b5050565b60008090505b600180549050811015611d7257611d656002600060018481548110611cb157fe5b906000526020600020906003020160000160009054906101000a900473ffffffffffffffffffffffffffffffffffffffff1673ffffffffffffffffffffffffffffffffffffffff1673ffffffffffffffffffffffffffffffffffffffff1681526020019081526020016000206002015460018381548110611d2e57fe5b906000526020600020906003020160000160009054906101000a900473ffffffffffffffffffffffffffffffffffffffff16611bca565b8080600101915050611c90565b50565b828054600181600116156101000203166002900490600052602060002090601f016020900481019282601f10611db657805160ff1916838001178555611de4565b82800160010185558215611de4579182015b82811115611de3578251825591602001919060010190611dc8565b5b509050611df19190611e2c565b5090565b6040518060600160405280600073ffffffffffffffffffffffffffffffffffffffff16815260200160008152602001600081525090565b611e4e91905b80821115611e4a576000816000905550600101611e32565b5090565b9056fea265627a7a72315820272cd241f95fcb99596c81184aa8ba8e63e3597314bd9c98bc61b4df260202e364736f6c63430005100032",
  "source": "pragma solidity >=0.5.0 <0.7.0;\n\ncontract CrowdfundingContract {\n\tstring public state = \"START\";\n\tstruct Sender {\n\t\taddress payable addr;\n\t\tuint date;\n\t\tuint val;\n\t}\n\tevent Message(string msg);\n\tevent Message2(uint msg);\n\tSender[] public senders;\n\tmapping(address => Sender) public senderMap;\n\taddress payable public company;\n\tuint public endDate;\n\tstring public title;\n\tuint public goal;\n\tuint public sum;\n\tfunction handle(string memory input) public payable {\n\t\tif (isEqual(state, \"START\") && isEqual(input, \"init\")) {\n\t\t\tstate = \"CREATED\";\n\t\t\t//Entry Activity of new State\n\t\t\tcompany = 0x0ad875cadf6CD921c5DB2cDD3dddC24A8b61B2d3;\n\t\t\tendDate = 1610406000000;\n\t\t\ttitle = \"IrgendeinProjekt\";\n\t\t\tgoal = 10 ether;\n\t\t}\n\t\telse if (isEqual(state, \"CREATED\") && isEqual(input, \"pay*\") && now <= endDate && msg.value < goal) {\n\t\t\tSender memory s = Sender(msg.sender, now, msg.value);\n\t\t\taddSender(s);\n\t\t\tstate = \"FUNDING\";\n\t\t\t//Entry Activity of new State\n\t\t\tsum = sum + msg.value;\n\t\t}\n\t\telse if (isEqual(state, \"FUNDING\") && isEqual(input, \"pay*\") && now <= endDate && sum + msg.value < goal) {\n\t\t\tSender memory s = Sender(msg.sender, now, msg.value);\n\t\t\taddSender(s);\n\t\t\tstate = \"FUNDING\";\n\t\t\t//Entry Activity of new State\n\t\t\tsum = sum + msg.value;\n\t\t}\n\t\telse if (isEqual(state, \"CREATED\") && isEqual(input, \"pay*\") && now <= endDate && msg.value >= goal) {\n\t\t\tSender memory s = Sender(msg.sender, now, msg.value);\n\t\t\taddSender(s);\n\t\t\tstate = \"SUCCESSFUL\";\n\t\t\t//Entry Activity of new State\n\t\t\ttransfer(sum + msg.value, company);\n\t\t\tsum = sum + msg.value;\n\t\t}\n\t\telse if (isEqual(state, \"CREATED\") && isEqual(input, \"pay*\") && now > endDate) {\n\t\t\tSender memory s = Sender(msg.sender, now, msg.value);\n\t\t\taddSender(s);\n\t\t\tstate = \"FAILED\";\n\t\t\t//Entry Activity of new State\n\t\t\treturnPayments();\n\t\t}\n\t\telse if (isEqual(state, \"FUNDING\") && isEqual(input, \"pay*\") && sum + msg.value >= goal && now <= endDate) {\n\t\t\tSender memory s = Sender(msg.sender, now, msg.value);\n\t\t\taddSender(s);\n\t\t\tstate = \"SUCCESSFUL\";\n\t\t\t//Entry Activity of new State\n\t\t\ttransfer(sum + msg.value, company);\n\t\t\tsum = sum + msg.value;\n\t\t}\n\t\telse if (isEqual(state, \"FUNDING\") && isEqual(input, \"pay*\") && now > endDate) {\n\t\t\tSender memory s = Sender(msg.sender, now, msg.value);\n\t\t\taddSender(s);\n\t\t\tstate = \"FAILED\";\n\t\t\t//Entry Activity of new State\n\t\t\treturnPayments();\n\t\t}\n\t\telse if (isEqual(state, \"FAILED\") && isEqual(input, \"exit\")) {\n\t\t\tstate = \"END\";\n\t\t}\n\t\telse if (isEqual(state, \"SUCCESSFUL\") && isEqual(input, \"exit\")) {\n\t\t\tstate = \"END\";\n\t\t}\n\t}\n\n\tfunction isEqual(string memory a, string memory b) public pure returns (bool) {\n\t\treturn (keccak256(abi.encodePacked((a))) == keccak256(abi.encodePacked((b))));\n\t}\n\n\tfunction transfer(uint amount, address payable receiver) private {\n\t\tif (address(this).balance >= amount)\n\t\t\treceiver.transfer(amount);\n\t\telse\n\t\t\temit Message(\"balance of contract no enough\");\n\t}\n\tfunction returnPayments() private {\n\t\tfor (uint i = 0; i < senders.length; i++)\n\t\t\ttransfer(senderMap[senders[i].addr].val, senders[i].addr);\n\t}\n\tfunction addSender(Sender memory s) private {\n\t\tif (senderMap[s.addr].addr == address(0)) {\n\t\t\tsenders.push(s);\n\t\t\tsenderMap[s.addr] = s;\n\t\t} else {\n\t\t\tsenderMap[s.addr].val += s.val;\n\t\t}\n\t}\n}\n",
  "sourcePath": "/home/andi/Dokumente/ba/meivsm/contracts/CrowdfundingContract.sol",
  "compiler": {
    "name": "solc",
    "version": "0.5.16+commit.9c3226ce.Emscripten.clang"
  },
  "schemaVersion": "3.0.23",
  "updatedAt": "2020-02-13T22:39:07.757Z",
  "networkType": "ethereum",
  "devdoc": {
    "methods": {}
  },
  "userdoc": {
    "methods": {}
  }
}