{
  "contractName": "CrowdfundingContractForTests",
  "abi": [
    {
      "anonymous": false,
      "inputs": [
        {
          "indexed": false,
          "internalType": "string",
          "name": "msg",
          "type": "string"
        }
      ],
      "name": "Message",
      "type": "event"
    },
    {
      "constant": true,
      "inputs": [],
      "name": "company",
      "outputs": [
        {
          "internalType": "address payable",
          "name": "",
          "type": "address"
        }
      ],
      "payable": false,
      "stateMutability": "view",
      "type": "function"
    },
    {
      "constant": true,
      "inputs": [],
      "name": "endDate",
      "outputs": [
        {
          "internalType": "uint256",
          "name": "",
          "type": "uint256"
        }
      ],
      "payable": false,
      "stateMutability": "view",
      "type": "function"
    },
    {
      "constant": true,
      "inputs": [],
      "name": "goal",
      "outputs": [
        {
          "internalType": "uint256",
          "name": "",
          "type": "uint256"
        }
      ],
      "payable": false,
      "stateMutability": "view",
      "type": "function"
    },
    {
      "constant": true,
      "inputs": [
        {
          "internalType": "address",
          "name": "",
          "type": "address"
        }
      ],
      "name": "senderMap",
      "outputs": [
        {
          "internalType": "address payable",
          "name": "addr",
          "type": "address"
        },
        {
          "internalType": "uint256",
          "name": "date",
          "type": "uint256"
        },
        {
          "internalType": "uint256",
          "name": "val",
          "type": "uint256"
        }
      ],
      "payable": false,
      "stateMutability": "view",
      "type": "function"
    },
    {
      "constant": true,
      "inputs": [
        {
          "internalType": "uint256",
          "name": "",
          "type": "uint256"
        }
      ],
      "name": "senders",
      "outputs": [
        {
          "internalType": "address payable",
          "name": "addr",
          "type": "address"
        },
        {
          "internalType": "uint256",
          "name": "date",
          "type": "uint256"
        },
        {
          "internalType": "uint256",
          "name": "val",
          "type": "uint256"
        }
      ],
      "payable": false,
      "stateMutability": "view",
      "type": "function"
    },
    {
      "constant": true,
      "inputs": [],
      "name": "state",
      "outputs": [
        {
          "internalType": "string",
          "name": "",
          "type": "string"
        }
      ],
      "payable": false,
      "stateMutability": "view",
      "type": "function"
    },
    {
      "constant": true,
      "inputs": [],
      "name": "sum",
      "outputs": [
        {
          "internalType": "uint256",
          "name": "",
          "type": "uint256"
        }
      ],
      "payable": false,
      "stateMutability": "view",
      "type": "function"
    },
    {
      "constant": true,
      "inputs": [],
      "name": "title",
      "outputs": [
        {
          "internalType": "string",
          "name": "",
          "type": "string"
        }
      ],
      "payable": false,
      "stateMutability": "view",
      "type": "function"
    },
    {
      "constant": false,
      "inputs": [
        {
          "internalType": "string",
          "name": "input",
          "type": "string"
        }
      ],
      "name": "handle",
      "outputs": [],
      "payable": true,
      "stateMutability": "payable",
      "type": "function"
    },
    {
      "constant": true,
      "inputs": [
        {
          "internalType": "string",
          "name": "a",
          "type": "string"
        },
        {
          "internalType": "string",
          "name": "b",
          "type": "string"
        }
      ],
      "name": "isEqual",
      "outputs": [
        {
          "internalType": "bool",
          "name": "",
          "type": "bool"
        }
      ],
      "payable": false,
      "stateMutability": "pure",
      "type": "function"
    },
    {
      "constant": false,
      "inputs": [
        {
          "internalType": "uint256",
          "name": "_endDate",
          "type": "uint256"
        }
      ],
      "name": "setEndDate",
      "outputs": [],
      "payable": false,
      "stateMutability": "nonpayable",
      "type": "function"
    },
    {
      "constant": true,
      "inputs": [],
      "name": "getSendersLength",
      "outputs": [
        {
          "internalType": "uint256",
          "name": "",
          "type": "uint256"
        }
      ],
      "payable": false,
      "stateMutability": "view",
      "type": "function"
    }
  ],
  "bytecode": "0x60806040526040518060400160405280600581526020017f5354415254000000000000000000000000000000000000000000000000000000815250600090805190602001906200005192919062000066565b503480156200005f57600080fd5b5062000115565b828054600181600116156101000203166002900490600052602060002090601f016020900481019282601f10620000a957805160ff1916838001178555620000da565b82800160010185558215620000da579182015b82811115620000d9578251825591602001919060010190620000bc565b5b509050620000e99190620000ed565b5090565b6200011291905b808211156200010e576000816000905550600101620000f4565b5090565b90565b611ed580620001256000396000f3fe6080604052600436106100a75760003560e01c80636904c94d116100645780636904c94d14610473578063853255cc146104ca5780638b4cb335146104f55780639977c78a14610520578063c19d93fb146105a9578063c24a0f8b14610639576100a7565b80631a32916d146100ac578063344ce0f8146101675780633784f000146102065780634019388314610241578063465c41051461026c5780634a79d50c146103e3575b600080fd5b610165600480360360208110156100c257600080fd5b81019080803590602001906401000000008111156100df57600080fd5b8201836020820111156100f157600080fd5b8035906020019184600183028401116401000000008311171561011357600080fd5b91908080601f016020809104026020016040519081016040528093929190818152602001838380828437600081840152601f19601f820116905080830192505050505050509192919290505050610664565b005b34801561017357600080fd5b506101b66004803603602081101561018a57600080fd5b81019080803573ffffffffffffffffffffffffffffffffffffffff16906020019092919050505061171e565b604051808473ffffffffffffffffffffffffffffffffffffffff1673ffffffffffffffffffffffffffffffffffffffff168152602001838152602001828152602001935050505060405180910390f35b34801561021257600080fd5b5061023f6004803603602081101561022957600080fd5b8101908080359060200190929190505050611768565b005b34801561024d57600080fd5b50610256611772565b6040518082815260200191505060405180910390f35b34801561027857600080fd5b506103c96004803603604081101561028f57600080fd5b81019080803590602001906401000000008111156102ac57600080fd5b8201836020820111156102be57600080fd5b803590602001918460018302840111640100000000831117156102e057600080fd5b91908080601f016020809104026020016040519081016040528093929190818152602001838380828437600081840152601f19601f8201169050808301925050505050505091929192908035906020019064010000000081111561034357600080fd5b82018360208201111561035557600080fd5b8035906020019184600183028401116401000000008311171561037757600080fd5b91908080601f016020809104026020016040519081016040528093929190818152602001838380828437600081840152601f19601f820116905080830192505050505050509192919290505050611778565b604051808215151515815260200191505060405180910390f35b3480156103ef57600080fd5b506103f8611867565b6040518080602001828103825283818151815260200191508051906020019080838360005b8381101561043857808201518184015260208101905061041d565b50505050905090810190601f1680156104655780820380516001836020036101000a031916815260200191505b509250505060405180910390f35b34801561047f57600080fd5b50610488611905565b604051808273ffffffffffffffffffffffffffffffffffffffff1673ffffffffffffffffffffffffffffffffffffffff16815260200191505060405180910390f35b3480156104d657600080fd5b506104df61192b565b6040518082815260200191505060405180910390f35b34801561050157600080fd5b5061050a611931565b6040518082815260200191505060405180910390f35b34801561052c57600080fd5b506105596004803603602081101561054357600080fd5b810190808035906020019092919050505061193e565b604051808473ffffffffffffffffffffffffffffffffffffffff1673ffffffffffffffffffffffffffffffffffffffff168152602001838152602001828152602001935050505060405180910390f35b3480156105b557600080fd5b506105be611995565b6040518080602001828103825283818151815260200191508051906020019080838360005b838110156105fe5780820151818401526020810190506105e3565b50505050905090810190601f16801561062b5780820380516001836020036101000a031916815260200191505b509250505060405180910390f35b34801561064557600080fd5b5061064e611a33565b6040518082815260200191505060405180910390f35b61073d60008054600181600116156101000203166002900480601f0160208091040260200160405190810160405280929190818152602001828054600181600116156101000203166002900480156106fd5780601f106106d2576101008083540402835291602001916106fd565b820191906000526020600020905b8154815290600101906020018083116106e057829003601f168201915b50505050506040518060400160405280600581526020017f5354415254000000000000000000000000000000000000000000000000000000815250611778565b80156107845750610783816040518060400160405280600481526020017f696e697400000000000000000000000000000000000000000000000000000000815250611778565b5b1561089d576040518060400160405280600781526020017f4352454154454400000000000000000000000000000000000000000000000000815250600090805190602001906107d4929190611dc4565b5073d52910c88309a7014078e3795c15753a858aee2a600360006101000a81548173ffffffffffffffffffffffffffffffffffffffff021916908373ffffffffffffffffffffffffffffffffffffffff160217905550635ffcd8706004819055506040518060400160405280601081526020017f497267656e6465696e50726f6a656b740000000000000000000000000000000081525060059080519060200190610880929190611dc4565b50678ac7230489e80000600681905550600060078190555061171b565b61097660008054600181600116156101000203166002900480601f0160208091040260200160405190810160405280929190818152602001828054600181600116156101000203166002900480156109365780601f1061090b57610100808354040283529160200191610936565b820191906000526020600020905b81548152906001019060200180831161091957829003601f168201915b50505050506040518060400160405280600781526020017f4352454154454400000000000000000000000000000000000000000000000000815250611778565b80156109bd57506109bc816040518060400160405280600481526020017f7061792a00000000000000000000000000000000000000000000000000000000815250611778565b5b80156109cb57506004544211155b80156109d8575060065434105b15610a7e576109e5611e44565b60405180606001604052803373ffffffffffffffffffffffffffffffffffffffff168152602001428152602001348152509050610a2181611a39565b6040518060400160405280600781526020017f46554e44494e470000000000000000000000000000000000000000000000000081525060009080519060200190610a6c929190611dc4565b5034600754016007819055505061171a565b610b5760008054600181600116156101000203166002900480601f016020809104026020016040519081016040528092919081815260200182805460018160011615610100020316600290048015610b175780601f10610aec57610100808354040283529160200191610b17565b820191906000526020600020905b815481529060010190602001808311610afa57829003601f168201915b50505050506040518060400160405280600781526020017f46554e44494e4700000000000000000000000000000000000000000000000000815250611778565b8015610b9e5750610b9d816040518060400160405280600481526020017f7061792a00000000000000000000000000000000000000000000000000000000815250611778565b5b8015610bac57506004544211155b8015610bbd57506006543460075401105b15610c6357610bca611e44565b60405180606001604052803373ffffffffffffffffffffffffffffffffffffffff168152602001428152602001348152509050610c0681611a39565b6040518060400160405280600781526020017f46554e44494e470000000000000000000000000000000000000000000000000081525060009080519060200190610c51929190611dc4565b50346007540160078190555050611719565b610d3c60008054600181600116156101000203166002900480601f016020809104026020016040519081016040528092919081815260200182805460018160011615610100020316600290048015610cfc5780601f10610cd157610100808354040283529160200191610cfc565b820191906000526020600020905b815481529060010190602001808311610cdf57829003601f168201915b50505050506040518060400160405280600781526020017f4352454154454400000000000000000000000000000000000000000000000000815250611778565b8015610d835750610d82816040518060400160405280600481526020017f7061792a00000000000000000000000000000000000000000000000000000000815250611778565b5b8015610d9157506004544211155b8015610d9f57506006543410155b15610e7557610dac611e44565b60405180606001604052803373ffffffffffffffffffffffffffffffffffffffff168152602001428152602001348152509050610de881611a39565b6040518060400160405280600a81526020017f5355434345535346554c0000000000000000000000000000000000000000000081525060009080519060200190610e33929190611dc4565b50610e643460075401600360009054906101000a900473ffffffffffffffffffffffffffffffffffffffff16611c63565b346007540160078190555050611718565b610f4e60008054600181600116156101000203166002900480601f016020809104026020016040519081016040528092919081815260200182805460018160011615610100020316600290048015610f0e5780601f10610ee357610100808354040283529160200191610f0e565b820191906000526020600020905b815481529060010190602001808311610ef157829003601f168201915b50505050506040518060400160405280600781526020017f4352454154454400000000000000000000000000000000000000000000000000815250611778565b8015610f955750610f94816040518060400160405280600481526020017f7061792a00000000000000000000000000000000000000000000000000000000815250611778565b5b8015610fa2575060045442115b1561104557610faf611e44565b60405180606001604052803373ffffffffffffffffffffffffffffffffffffffff168152602001428152602001348152509050610feb81611a39565b6040518060400160405280600681526020017f4641494c4544000000000000000000000000000000000000000000000000000081525060009080519060200190611036929190611dc4565b5061103f611cd9565b50611717565b61111e60008054600181600116156101000203166002900480601f0160208091040260200160405190810160405280929190818152602001828054600181600116156101000203166002900480156110de5780601f106110b3576101008083540402835291602001916110de565b820191906000526020600020905b8154815290600101906020018083116110c157829003601f168201915b50505050506040518060400160405280600781526020017f46554e44494e4700000000000000000000000000000000000000000000000000815250611778565b80156111655750611164816040518060400160405280600481526020017f7061792a00000000000000000000000000000000000000000000000000000000815250611778565b5b80156111775750600654346007540110155b801561118557506004544211155b1561125b57611192611e44565b60405180606001604052803373ffffffffffffffffffffffffffffffffffffffff1681526020014281526020013481525090506111ce81611a39565b6040518060400160405280600a81526020017f5355434345535346554c0000000000000000000000000000000000000000000081525060009080519060200190611219929190611dc4565b5061124a3460075401600360009054906101000a900473ffffffffffffffffffffffffffffffffffffffff16611c63565b346007540160078190555050611716565b61133460008054600181600116156101000203166002900480601f0160208091040260200160405190810160405280929190818152602001828054600181600116156101000203166002900480156112f45780601f106112c9576101008083540402835291602001916112f4565b820191906000526020600020905b8154815290600101906020018083116112d757829003601f168201915b50505050506040518060400160405280600781526020017f46554e44494e4700000000000000000000000000000000000000000000000000815250611778565b801561137b575061137a816040518060400160405280600481526020017f7061792a00000000000000000000000000000000000000000000000000000000815250611778565b5b8015611388575060045442115b1561142b57611395611e44565b60405180606001604052803373ffffffffffffffffffffffffffffffffffffffff1681526020014281526020013481525090506113d181611a39565b6040518060400160405280600681526020017f4641494c454400000000000000000000000000000000000000000000000000008152506000908051906020019061141c929190611dc4565b50611425611cd9565b50611715565b61150460008054600181600116156101000203166002900480601f0160208091040260200160405190810160405280929190818152602001828054600181600116156101000203166002900480156114c45780601f10611499576101008083540402835291602001916114c4565b820191906000526020600020905b8154815290600101906020018083116114a757829003601f168201915b50505050506040518060400160405280600681526020017f4641494c45440000000000000000000000000000000000000000000000000000815250611778565b801561154b575061154a816040518060400160405280600481526020017f6578697400000000000000000000000000000000000000000000000000000000815250611778565b5b156115a1576040518060400160405280600381526020017f454e4400000000000000000000000000000000000000000000000000000000008152506000908051906020019061159b929190611dc4565b50611714565b61167a60008054600181600116156101000203166002900480601f01602080910402602001604051908101604052809291908181526020018280546001816001161561010002031660029004801561163a5780601f1061160f5761010080835404028352916020019161163a565b820191906000526020600020905b81548152906001019060200180831161161d57829003601f168201915b50505050506040518060400160405280600a81526020017f5355434345535346554c00000000000000000000000000000000000000000000815250611778565b80156116c157506116c0816040518060400160405280600481526020017f6578697400000000000000000000000000000000000000000000000000000000815250611778565b5b15611713576040518060400160405280600381526020017f454e44000000000000000000000000000000000000000000000000000000000081525060009080519060200190611711929190611dc4565b505b5b5b5b5b5b5b5b5b50565b60026020528060005260406000206000915090508060000160009054906101000a900473ffffffffffffffffffffffffffffffffffffffff16908060010154908060020154905083565b8060048190555050565b60065481565b6000816040516020018082805190602001908083835b602083106117b1578051825260208201915060208101905060208303925061178e565b6001836020036101000a03801982511681845116808217855250505050505090500191505060405160208183030381529060405280519060200120836040516020018082805190602001908083835b602083106118235780518252602082019150602081019050602083039250611800565b6001836020036101000a0380198251168184511680821785525050505050509050019150506040516020818303038152906040528051906020012014905092915050565b60058054600181600116156101000203166002900480601f0160208091040260200160405190810160405280929190818152602001828054600181600116156101000203166002900480156118fd5780601f106118d2576101008083540402835291602001916118fd565b820191906000526020600020905b8154815290600101906020018083116118e057829003601f168201915b505050505081565b600360009054906101000a900473ffffffffffffffffffffffffffffffffffffffff1681565b60075481565b6000600180549050905090565b6001818154811061194b57fe5b90600052602060002090600302016000915090508060000160009054906101000a900473ffffffffffffffffffffffffffffffffffffffff16908060010154908060020154905083565b60008054600181600116156101000203166002900480601f016020809104026020016040519081016040528092919081815260200182805460018160011615610100020316600290048015611a2b5780601f10611a0057610100808354040283529160200191611a2b565b820191906000526020600020905b815481529060010190602001808311611a0e57829003601f168201915b505050505081565b60045481565b600073ffffffffffffffffffffffffffffffffffffffff1660026000836000015173ffffffffffffffffffffffffffffffffffffffff1673ffffffffffffffffffffffffffffffffffffffff16815260200190815260200160002060000160009054906101000a900473ffffffffffffffffffffffffffffffffffffffff1673ffffffffffffffffffffffffffffffffffffffff161415611c07576001819080600181540180825580915050906001820390600052602060002090600302016000909192909190915060008201518160000160006101000a81548173ffffffffffffffffffffffffffffffffffffffff021916908373ffffffffffffffffffffffffffffffffffffffff16021790555060208201518160010155604082015181600201555050508060026000836000015173ffffffffffffffffffffffffffffffffffffffff1673ffffffffffffffffffffffffffffffffffffffff16815260200190815260200160002060008201518160000160006101000a81548173ffffffffffffffffffffffffffffffffffffffff021916908373ffffffffffffffffffffffffffffffffffffffff1602179055506020820151816001015560408201518160020155905050611c60565b806040015160026000836000015173ffffffffffffffffffffffffffffffffffffffff1673ffffffffffffffffffffffffffffffffffffffff168152602001908152602001600020600201600082825401925050819055505b50565b600030905060008173ffffffffffffffffffffffffffffffffffffffff16319050838110611cd3578273ffffffffffffffffffffffffffffffffffffffff166108fc859081150290604051600060405180830381858888f19350505050158015611cd1573d6000803e3d6000fd5b505b50505050565b60008090505b600180549050811015611dc157611db46002600060018481548110611d0057fe5b906000526020600020906003020160000160009054906101000a900473ffffffffffffffffffffffffffffffffffffffff1673ffffffffffffffffffffffffffffffffffffffff1673ffffffffffffffffffffffffffffffffffffffff1681526020019081526020016000206002015460018381548110611d7d57fe5b906000526020600020906003020160000160009054906101000a900473ffffffffffffffffffffffffffffffffffffffff16611c63565b8080600101915050611cdf565b50565b828054600181600116156101000203166002900490600052602060002090601f016020900481019282601f10611e0557805160ff1916838001178555611e33565b82800160010185558215611e33579182015b82811115611e32578251825591602001919060010190611e17565b5b509050611e409190611e7b565b5090565b6040518060600160405280600073ffffffffffffffffffffffffffffffffffffffff16815260200160008152602001600081525090565b611e9d91905b80821115611e99576000816000905550600101611e81565b5090565b9056fea265627a7a723158202b44a55b2470a2c0f63615f3ae6379b4f0ecc0a159baf81aa106a8dea428347c64736f6c63430005100032",
  "source": "pragma solidity >=0.5.0 <0.7.0;\n\ncontract CrowdfundingContractForTests {\n    string public state = \"START\";\n    struct Sender {\n        address payable addr;\n        uint256 date;\n        uint256 val;\n    }\n    event Message(string msg);\n    Sender[] public senders;\n    mapping(address => Sender) public senderMap;\n    address payable public company;\n    uint256 public endDate;\n    string public title;\n    uint256 public goal;\n    uint256 public sum;\n    function handle(string memory input) public payable {\n        if (isEqual(state, \"START\") && isEqual(input, \"init\")) {\n            state = \"CREATED\";\n            //Entry Activity of new State\n            company = 0xD52910c88309A7014078E3795c15753A858aee2A;\n            endDate = 1610406000;\n            title = \"IrgendeinProjekt\";\n            goal = 10 ether;\n            sum = 0;\n        } else if (\n            isEqual(state, \"CREATED\") &&\n            isEqual(input, \"pay*\") &&\n            now <= endDate &&\n            msg.value < goal\n        ) {\n            Sender memory s = Sender(msg.sender, now, msg.value);\n            addSender(s);\n            state = \"FUNDING\";\n            //Entry Activity of new State\n            sum = sum + msg.value;\n        } else if (\n            isEqual(state, \"FUNDING\") &&\n            isEqual(input, \"pay*\") &&\n            now <= endDate &&\n            sum + msg.value < goal\n        ) {\n            Sender memory s = Sender(msg.sender, now, msg.value);\n            addSender(s);\n            state = \"FUNDING\";\n            //Entry Activity of new State\n            sum = sum + msg.value;\n        } else if (\n            isEqual(state, \"CREATED\") &&\n            isEqual(input, \"pay*\") &&\n            now <= endDate &&\n            msg.value >= goal\n        ) {\n            Sender memory s = Sender(msg.sender, now, msg.value);\n            addSender(s);\n            state = \"SUCCESSFUL\";\n            //Entry Activity of new State\n            transfer(sum + msg.value, company);\n            sum = sum + msg.value;\n        } else if (\n            isEqual(state, \"CREATED\") && isEqual(input, \"pay*\") && now > endDate\n        ) {\n            Sender memory s = Sender(msg.sender, now, msg.value);\n            addSender(s);\n            state = \"FAILED\";\n            //Entry Activity of new State\n            returnPayments();\n        } else if (\n            isEqual(state, \"FUNDING\") &&\n            isEqual(input, \"pay*\") &&\n            sum + msg.value >= goal &&\n            now <= endDate\n        ) {\n            Sender memory s = Sender(msg.sender, now, msg.value);\n            addSender(s);\n            state = \"SUCCESSFUL\";\n            //Entry Activity of new State\n            transfer(sum + msg.value, company);\n            sum = sum + msg.value;\n        } else if (\n            isEqual(state, \"FUNDING\") && isEqual(input, \"pay*\") && now > endDate\n        ) {\n            Sender memory s = Sender(msg.sender, now, msg.value);\n            addSender(s);\n            state = \"FAILED\";\n            //Entry Activity of new State\n            returnPayments();\n        } else if (isEqual(state, \"FAILED\") && isEqual(input, \"exit\")) {\n            state = \"END\";\n        } else if (isEqual(state, \"SUCCESSFUL\") && isEqual(input, \"exit\")) {\n            state = \"END\";\n        }\n    }\n\n    function isEqual(string memory a, string memory b)\n        public\n        pure\n        returns (bool)\n    {\n        return (keccak256(abi.encodePacked((a))) ==\n            keccak256(abi.encodePacked((b))));\n    }\n\n    function transfer(uint256 amount, address payable receiver) private {\n        // workaround with local var because of invalid opcode by using address(this).balance\n        address self = address(this);\n        uint256 balance = self.balance;\n        if (balance >= amount) receiver.transfer(amount);\n    }\n    function returnPayments() private {\n        for (uint256 i = 0; i < senders.length; i++)\n            transfer(senderMap[senders[i].addr].val, senders[i].addr);\n    }\n    function addSender(Sender memory s) private {\n        if (senderMap[s.addr].addr == address(0)) {\n            senders.push(s);\n            senderMap[s.addr] = s;\n        } else {\n            senderMap[s.addr].val += s.val;\n        }\n    }\n    function setEndDate(uint256 _endDate) public {\n        endDate = _endDate;\n    }\n\n    function getSendersLength() public view returns (uint256) {\n        return senders.length;\n    }\n}\n",
  "sourcePath": "/home/andi/Dokumente/ba/meivsm/contracts/CrowdfundingContractForTests.sol",
  "compiler": {
    "name": "solc",
    "version": "0.5.16+commit.9c3226ce.Emscripten.clang"
  },
  "schemaVersion": "3.0.23",
  "updatedAt": "2020-02-13T22:39:07.765Z",
  "networkType": "ethereum",
  "devdoc": {
    "methods": {}
  },
  "userdoc": {
    "methods": {}
  }
}