{
  "contractName": "CrudApp",
  "abi": [
    {
      "inputs": [],
      "payable": false,
      "stateMutability": "nonpayable",
      "type": "constructor"
    },
    {
      "anonymous": false,
      "inputs": [
        {
          "indexed": false,
          "internalType": "string",
          "name": "countryName",
          "type": "string"
        }
      ],
      "name": "CountryDelete",
      "type": "event"
    },
    {
      "anonymous": false,
      "inputs": [
        {
          "indexed": false,
          "internalType": "string",
          "name": "countryName",
          "type": "string"
        },
        {
          "indexed": false,
          "internalType": "string",
          "name": "leader",
          "type": "string"
        },
        {
          "indexed": false,
          "internalType": "uint256",
          "name": "population",
          "type": "uint256"
        }
      ],
      "name": "CountryEvent",
      "type": "event"
    },
    {
      "anonymous": false,
      "inputs": [
        {
          "indexed": false,
          "internalType": "string",
          "name": "countryName",
          "type": "string"
        },
        {
          "indexed": false,
          "internalType": "string",
          "name": "leader",
          "type": "string"
        }
      ],
      "name": "LeaderUpdated",
      "type": "event"
    },
    {
      "constant": true,
      "inputs": [
        {
          "internalType": "uint256",
          "name": "",
          "type": "uint256"
        }
      ],
      "name": "countries",
      "outputs": [
        {
          "internalType": "string",
          "name": "name",
          "type": "string"
        },
        {
          "internalType": "string",
          "name": "leader",
          "type": "string"
        },
        {
          "internalType": "uint256",
          "name": "population",
          "type": "uint256"
        }
      ],
      "payable": false,
      "stateMutability": "view",
      "type": "function"
    },
    {
      "constant": true,
      "inputs": [
        {
          "internalType": "uint256",
          "name": "",
          "type": "uint256"
        }
      ],
      "name": "fixedSizeCountries",
      "outputs": [
        {
          "internalType": "string",
          "name": "name",
          "type": "string"
        },
        {
          "internalType": "string",
          "name": "leader",
          "type": "string"
        },
        {
          "internalType": "uint256",
          "name": "population",
          "type": "uint256"
        }
      ],
      "payable": false,
      "stateMutability": "view",
      "type": "function"
    },
    {
      "constant": true,
      "inputs": [],
      "name": "totalCountries",
      "outputs": [
        {
          "internalType": "uint256",
          "name": "",
          "type": "uint256"
        }
      ],
      "payable": false,
      "stateMutability": "view",
      "type": "function"
    },
    {
      "constant": false,
      "inputs": [
        {
          "internalType": "string",
          "name": "countryName",
          "type": "string"
        },
        {
          "internalType": "string",
          "name": "leader",
          "type": "string"
        },
        {
          "internalType": "uint256",
          "name": "population",
          "type": "uint256"
        }
      ],
      "name": "insert",
      "outputs": [
        {
          "internalType": "uint256",
          "name": "",
          "type": "uint256"
        }
      ],
      "payable": false,
      "stateMutability": "nonpayable",
      "type": "function"
    },
    {
      "constant": false,
      "inputs": [
        {
          "internalType": "string",
          "name": "countryName",
          "type": "string"
        },
        {
          "internalType": "string",
          "name": "newLeader",
          "type": "string"
        }
      ],
      "name": "updateLeader",
      "outputs": [
        {
          "internalType": "bool",
          "name": "",
          "type": "bool"
        }
      ],
      "payable": false,
      "stateMutability": "nonpayable",
      "type": "function"
    },
    {
      "constant": false,
      "inputs": [
        {
          "internalType": "string",
          "name": "countryName",
          "type": "string"
        }
      ],
      "name": "deleteCountry",
      "outputs": [
        {
          "internalType": "bool",
          "name": "",
          "type": "bool"
        }
      ],
      "payable": false,
      "stateMutability": "nonpayable",
      "type": "function"
    },
    {
      "constant": true,
      "inputs": [
        {
          "internalType": "string",
          "name": "countryName",
          "type": "string"
        }
      ],
      "name": "getCountry",
      "outputs": [
        {
          "internalType": "string",
          "name": "",
          "type": "string"
        },
        {
          "internalType": "string",
          "name": "",
          "type": "string"
        },
        {
          "internalType": "uint256",
          "name": "",
          "type": "uint256"
        }
      ],
      "payable": false,
      "stateMutability": "view",
      "type": "function"
    },
    {
      "constant": true,
      "inputs": [],
      "name": "getTotalCountries",
      "outputs": [
        {
          "internalType": "uint256",
          "name": "",
          "type": "uint256"
        }
      ],
      "payable": false,
      "stateMutability": "view",
      "type": "function"
    }
  ],
  "bytecode": "0x608060405234801561001057600080fd5b506000600a81905550611886806100286000396000f3fe608060405234801561001057600080fd5b50600436106100885760003560e01c80638cdd8bdb1161005b5780638cdd8bdb146104d6578063acf75458146105f0578063c1356d261461060e578063cae650581461077e57610088565b806308e9daa51461008d57806362738129146101a757806381ba02be146101c5578063848924cb1461032f575b600080fd5b6100b9600480360360208110156100a357600080fd5b8101908080359060200190929190505050610851565b604051808060200180602001848152602001838103835286818151815260200191508051906020019080838360005b838110156101035780820151818401526020810190506100e8565b50505050905090810190601f1680156101305780820380516001836020036101000a031916815260200191505b50838103825285818151815260200191508051906020019080838360005b8381101561016957808201518184015260208101905061014e565b50505050905090810190601f1680156101965780820380516001836020036101000a031916815260200191505b509550505050505060405180910390f35b6101af6109b8565b6040518082815260200191505060405180910390f35b610315600480360360408110156101db57600080fd5b81019080803590602001906401000000008111156101f857600080fd5b82018360208201111561020a57600080fd5b8035906020019184600183028401116401000000008311171561022c57600080fd5b91908080601f016020809104026020016040519081016040528093929190818152602001838380828437600081840152601f19601f8201169050808301925050505050505091929192908035906020019064010000000081111561028f57600080fd5b8201836020820111156102a157600080fd5b803590602001918460018302840111640100000000831117156102c357600080fd5b91908080601f016020809104026020016040519081016040528093929190818152602001838380828437600081840152601f19601f8201169050808301925050505050505091929192905050506109be565b604051808215151515815260200191505060405180910390f35b6103e86004803603602081101561034557600080fd5b810190808035906020019064010000000081111561036257600080fd5b82018360208201111561037457600080fd5b8035906020019184600183028401116401000000008311171561039657600080fd5b91908080601f016020809104026020016040519081016040528093929190818152602001838380828437600081840152601f19601f820116905080830192505050505050509192919290505050610bf4565b604051808060200180602001848152602001838103835286818151815260200191508051906020019080838360005b83811015610432578082015181840152602081019050610417565b50505050905090810190601f16801561045f5780820380516001836020036101000a031916815260200191505b50838103825285818151815260200191508051906020019080838360005b8381101561049857808201518184015260208101905061047d565b50505050905090810190601f1680156104c55780820380516001836020036101000a031916815260200191505b509550505050505060405180910390f35b610502600480360360208110156104ec57600080fd5b8101908080359060200190929190505050610ef0565b604051808060200180602001848152602001838103835286818151815260200191508051906020019080838360005b8381101561054c578082015181840152602081019050610531565b50505050905090810190601f1680156105795780820380516001836020036101000a031916815260200191505b50838103825285818151815260200191508051906020019080838360005b838110156105b2578082015181840152602081019050610597565b50505050905090810190601f1680156105df5780820380516001836020036101000a031916815260200191505b509550505050505060405180910390f35b6105f861104d565b6040518082815260200191505060405180910390f35b6107686004803603606081101561062457600080fd5b810190808035906020019064010000000081111561064157600080fd5b82018360208201111561065357600080fd5b8035906020019184600183028401116401000000008311171561067557600080fd5b91908080601f016020809104026020016040519081016040528093929190818152602001838380828437600081840152601f19601f820116905080830192505050505050509192919290803590602001906401000000008111156106d857600080fd5b8201836020820111156106ea57600080fd5b8035906020019184600183028401116401000000008311171561070c57600080fd5b91908080601f016020809104026020016040519081016040528093929190818152602001838380828437600081840152601f19601f82011690508083019250505050505050919291929080359060200190929190505050611059565b6040518082815260200191505060405180910390f35b6108376004803603602081101561079457600080fd5b81019080803590602001906401000000008111156107b157600080fd5b8201836020820111156107c357600080fd5b803590602001918460018302840111640100000000831117156107e557600080fd5b91908080601f016020809104026020016040519081016040528093929190818152602001838380828437600081840152601f19601f820116905080830192505050505050509192919290505050611225565b604051808215151515815260200191505060405180910390f35b6000818154811061085e57fe5b9060005260206000209060030201600091509050806000018054600181600116156101000203166002900480601f01602080910402602001604051908101604052809291908181526020018280546001816001161561010002031660029004801561090a5780601f106108df5761010080835404028352916020019161090a565b820191906000526020600020905b8154815290600101906020018083116108ed57829003601f168201915b505050505090806001018054600181600116156101000203166002900480601f0160208091040260200160405190810160405280929190818152602001828054600181600116156101000203166002900480156109a85780601f1061097d576101008083540402835291602001916109a8565b820191906000526020600020905b81548152906001019060200180831161098b57829003601f168201915b5050505050908060020154905083565b600a5481565b600080600090505b600a54811015610be857610a90600082815481106109e057fe5b90600052602060002090600302016000018054600181600116156101000203166002900480601f016020809104026020016040519081016040528092919081815260200182805460018160011615610100020316600290048015610a855780601f10610a5a57610100808354040283529160200191610a85565b820191906000526020600020905b815481529060010190602001808311610a6857829003601f168201915b5050505050856114d4565b15610bdb578260008281548110610aa357fe5b90600052602060002090600302016001019080519060200190610ac79291906115c3565b507fdcbffcd2bd990a26d28efebebb6f9a7a35f2abf2f0e25720c56a457fce2211588484604051808060200180602001838103835285818151815260200191508051906020019080838360005b83811015610b2f578082015181840152602081019050610b14565b50505050905090810190601f168015610b5c5780820380516001836020036101000a031916815260200191505b50838103825284818151815260200191508051906020019080838360005b83811015610b95578082015181840152602081019050610b7a565b50505050905090810190601f168015610bc25780820380516001836020036101000a031916815260200191505b5094505050505060405180910390a16001915050610bee565b80806001019150506109c6565b50600090505b92915050565b606080600080600090505b600a54811015610e7a57610cc960008281548110610c1957fe5b90600052602060002090600302016000018054600181600116156101000203166002900480601f016020809104026020016040519081016040528092919081815260200182805460018160011615610100020316600290048015610cbe5780601f10610c9357610100808354040283529160200191610cbe565b820191906000526020600020905b815481529060010190602001808311610ca157829003601f168201915b5050505050866114d4565b15610e6d5760008181548110610cdb57fe5b906000526020600020906003020160000160008281548110610cf957fe5b906000526020600020906003020160010160008381548110610d1757fe5b906000526020600020906003020160020154828054600181600116156101000203166002900480601f016020809104026020016040519081016040528092919081815260200182805460018160011615610100020316600290048015610dbe5780601f10610d9357610100808354040283529160200191610dbe565b820191906000526020600020905b815481529060010190602001808311610da157829003601f168201915b50505050509250818054600181600116156101000203166002900480601f016020809104026020016040519081016040528092919081815260200182805460018160011615610100020316600290048015610e5a5780601f10610e2f57610100808354040283529160200191610e5a565b820191906000526020600020905b815481529060010190602001808311610e3d57829003601f168201915b5050505050915093509350935050610ee9565b8080600101915050610bff565b506040517f08c379a00000000000000000000000000000000000000000000000000000000081526004018080602001828103825260118152602001807f636f756e747279206e6f7420666f756e6400000000000000000000000000000081525060200191505060405180910390fd5b9193909250565b60018160038110610efd57fe5b60030201600091509050806000018054600181600116156101000203166002900480601f016020809104026020016040519081016040528092919081815260200182805460018160011615610100020316600290048015610f9f5780601f10610f7457610100808354040283529160200191610f9f565b820191906000526020600020905b815481529060010190602001808311610f8257829003601f168201915b505050505090806001018054600181600116156101000203166002900480601f01602080910402602001604051908101604052809291908181526020018280546001816001161561010002031660029004801561103d5780601f106110125761010080835404028352916020019161103d565b820191906000526020600020905b81548152906001019060200180831161102057829003601f168201915b5050505050908060020154905083565b60008080549050905090565b6000611063611643565b60405180606001604052808681526020018581526020018481525090506000819080600181540180825580915050906001820390600052602060002090600302016000909192909190915060008201518160000190805190602001906110ca929190611664565b5060208201518160010190805190602001906110e7929190611664565b5060408201518160020155505050600a600081548092919060010191905055507f0468dc69df7bee8f1d38fbb57d4c42ac20476b6d66c4477d41c677b7e2d63893858585604051808060200180602001848152602001838103835286818151815260200191508051906020019080838360005b8381101561117557808201518184015260208101905061115a565b50505050905090810190601f1680156111a25780820380516001836020036101000a031916815260200191505b50838103825285818151815260200191508051906020019080838360005b838110156111db5780820151818401526020810190506111c0565b50505050905090810190601f1680156112085780820380516001836020036101000a031916815260200191505b509550505050505060405180910390a1600a549150509392505050565b600080600a541161123557600080fd5b60008090505b600a548110156114c9576113056000828154811061125557fe5b90600052602060002090600302016000018054600181600116156101000203166002900480601f0160208091040260200160405190810160405280929190818152602001828054600181600116156101000203166002900480156112fa5780601f106112cf576101008083540402835291602001916112fa565b820191906000526020600020905b8154815290600101906020018083116112dd57829003601f168201915b5050505050846114d4565b156114bc5760006001600a54038154811061131c57fe5b90600052602060002090600302016000828154811061133757fe5b90600052602060002090600302016000820181600001908054600181600116156101000203166002900461136c9291906116e4565b50600182018160010190805460018160011615610100020316600290046113949291906116e4565b506002820154816002015590505060006001600a5403815481106113b457fe5b9060005260206000209060030201600080820160006113d3919061176b565b6001820160006113e3919061176b565b60028201600090555050600a6000815480929190600190039190505550600080548091906001900361141591906117b3565b507f1aae94a171c3e578099f7103bbb8a169533e0d22f84eb9807747a1c5bebbbc41836040518080602001828103825283818151815260200191508051906020019080838360005b8381101561147857808201518184015260208101905061145d565b50505050905090810190601f1680156114a55780820380516001836020036101000a031916815260200191505b509250505060405180910390a160019150506114cf565b808060010191505061123b565b50600090505b919050565b6000816040516020018082805190602001908083835b6020831061150d57805182526020820191506020810190506020830392506114ea565b6001836020036101000a03801982511681845116808217855250505050505090500191505060405160208183030381529060405280519060200120836040516020018082805190602001908083835b6020831061157f578051825260208201915060208101905060208303925061155c565b6001836020036101000a0380198251168184511680821785525050505050509050019150506040516020818303038152906040528051906020012014905092915050565b828054600181600116156101000203166002900490600052602060002090601f016020900481019282601f1061160457805160ff1916838001178555611632565b82800160010185558215611632579182015b82811115611631578251825591602001919060010190611616565b5b50905061163f91906117e5565b5090565b60405180606001604052806060815260200160608152602001600081525090565b828054600181600116156101000203166002900490600052602060002090601f016020900481019282601f106116a557805160ff19168380011785556116d3565b828001600101855582156116d3579182015b828111156116d25782518255916020019190600101906116b7565b5b5090506116e091906117e5565b5090565b828054600181600116156101000203166002900490600052602060002090601f016020900481019282601f1061171d578054855561175a565b8280016001018555821561175a57600052602060002091601f016020900482015b8281111561175957825482559160010191906001019061173e565b5b50905061176791906117e5565b5090565b50805460018160011615610100020316600290046000825580601f1061179157506117b0565b601f0160209004906000526020600020908101906117af91906117e5565b5b50565b8154818355818111156117e0576003028160030283600052602060002091820191016117df919061180a565b5b505050565b61180791905b808211156118035760008160009055506001016117eb565b5090565b90565b61184e91905b8082111561184a5760008082016000611829919061176b565b600182016000611839919061176b565b600282016000905550600301611810565b5090565b9056fea265627a7a7231582095d5db1624ff910e3fc26d7cce9779ecd5c2164c48a59144025f0d0d90eb3faa64736f6c63430005100032",
  "source": "pragma solidity ^0.5.8;\n\ncontract CrudApp {\n\n    struct country {\n        string name;\n        string leader;\n        uint256 population;\n    }\n\n    country[] public countries;\n\n    // Statische initialisierung\n    country[3] public fixedSizeCountries;\n\n    uint256 public totalCountries;\n\n\n    constructor() public {\n        totalCountries = 0;\n    }\n\n    event CountryEvent(string countryName, string leader, uint256 population);\n\n    event LeaderUpdated(string countryName, string leader);\n\n    event CountryDelete(string countryName);\n\n\n    function insert(string memory countryName, string memory leader, uint256 population) public\n    returns (uint256){\n        country memory newCountry = country(countryName, leader, population);\n        countries.push(newCountry);\n        totalCountries++;\n        //emit event\n        emit CountryEvent(countryName, leader, population);\n        return totalCountries;\n    }\n\n    function updateLeader(string memory countryName, string memory newLeader) public returns (bool){\n        //This has a problem we need loop\n        for (uint256 i = 0; i < totalCountries; i++) {\n            if (compareStrings(countries[i].name, countryName)) {\n                countries[i].leader = newLeader;\n                emit LeaderUpdated(countryName, newLeader);\n                return true;\n            }\n        }\n        return false;\n    }\n\n    function deleteCountry(string memory countryName) public returns (bool){\n        require(totalCountries > 0);\n        for (uint256 i = 0; i < totalCountries; i++) {\n            if (compareStrings(countries[i].name, countryName)) {\n                countries[i] = countries[totalCountries - 1];\n                // pushing last into current arrray index which we gonna delete\n                delete countries[totalCountries - 1];\n                // now deleteing last index\n                totalCountries--;\n                //total count decrease\n                countries.length--;\n                // array length decrease\n                //emit event\n                emit CountryDelete(countryName);\n                return true;\n            }\n        }\n        return false;\n    }\n\n\n    function getCountry(string memory countryName) public view returns (string memory, string memory, uint256){\n        for (uint256 i = 0; i < totalCountries; i++) {\n            if (compareStrings(countries[i].name, countryName)) {\n                //emit event\n                return (countries[i].name, countries[i].leader, countries[i].population);\n            }\n        }\n        revert('country not found');\n    }\n\n    function compareStrings(string memory a, string memory b) internal pure returns (bool){\n        return keccak256(abi.encodePacked(a)) == keccak256(abi.encodePacked(b));\n    }\n\n\n    function getTotalCountries() public view returns (uint256){\n        return countries.length;\n    }\n}\n",
  "sourcePath": "/home/andi/Dokumente/ba/meivsm/contracts/CrudApp.sol",
  "compiler": {
    "name": "solc",
    "version": "0.5.16+commit.9c3226ce.Emscripten.clang"
  },
  "schemaVersion": "3.0.23",
  "updatedAt": "2020-02-13T22:06:33.417Z",
  "networkType": "ethereum",
  "devdoc": {
    "methods": {}
  },
  "userdoc": {
    "methods": {}
  }
}