{
  "contractName": "PurchaseContract",
  "abi": [
    {
      "payable": false,
      "stateMutability": "nonpayable",
      "type": "fallback"
    },
    {
      "constant": true,
      "inputs": [],
      "name": "buyer",
      "outputs": [
        {
          "internalType": "address payable",
          "name": "",
          "type": "address"
        }
      ],
      "payable": false,
      "stateMutability": "view",
      "type": "function"
    },
    {
      "constant": true,
      "inputs": [],
      "name": "owner",
      "outputs": [
        {
          "internalType": "address payable",
          "name": "",
          "type": "address"
        }
      ],
      "payable": false,
      "stateMutability": "view",
      "type": "function"
    },
    {
      "constant": true,
      "inputs": [],
      "name": "productId",
      "outputs": [
        {
          "internalType": "uint256",
          "name": "",
          "type": "uint256"
        }
      ],
      "payable": false,
      "stateMutability": "view",
      "type": "function"
    },
    {
      "constant": true,
      "inputs": [],
      "name": "state",
      "outputs": [
        {
          "internalType": "string",
          "name": "",
          "type": "string"
        }
      ],
      "payable": false,
      "stateMutability": "view",
      "type": "function"
    },
    {
      "constant": false,
      "inputs": [
        {
          "internalType": "string",
          "name": "input",
          "type": "string"
        }
      ],
      "name": "handle",
      "outputs": [],
      "payable": true,
      "stateMutability": "payable",
      "type": "function"
    },
    {
      "constant": true,
      "inputs": [
        {
          "internalType": "string",
          "name": "a",
          "type": "string"
        },
        {
          "internalType": "string",
          "name": "b",
          "type": "string"
        }
      ],
      "name": "isEqual",
      "outputs": [
        {
          "internalType": "bool",
          "name": "",
          "type": "bool"
        }
      ],
      "payable": false,
      "stateMutability": "pure",
      "type": "function"
    }
  ],
  "bytecode": "0x60806040526040518060400160405280600581526020017f5354415254000000000000000000000000000000000000000000000000000000815250600090805190602001906200005192919062000066565b503480156200005f57600080fd5b5062000115565b828054600181600116156101000203166002900490600052602060002090601f016020900481019282601f10620000a957805160ff1916838001178555620000da565b82800160010185558215620000da579182015b82811115620000d9578251825591602001919060010190620000bc565b5b509050620000e99190620000ed565b5090565b6200011291905b808211156200010e576000816000905550600101620000f4565b5090565b90565b61128580620001256000396000f3fe6080604052600436106100555760003560e01c80631a32916d14610064578063465c41051461011f5780637150d8ae146102965780638da5cb5b146102ed578063c19d93fb14610344578063c5ce3911146103d4575b34801561006157600080fd5b50005b61011d6004803603602081101561007a57600080fd5b810190808035906020019064010000000081111561009757600080fd5b8201836020820111156100a957600080fd5b803590602001918460018302840111640100000000831117156100cb57600080fd5b91908080601f016020809104026020016040519081016040528093929190818152602001838380828437600081840152601f19601f8201169050808301925050505050505091929192905050506103ff565b005b34801561012b57600080fd5b5061027c6004803603604081101561014257600080fd5b810190808035906020019064010000000081111561015f57600080fd5b82018360208201111561017157600080fd5b8035906020019184600183028401116401000000008311171561019357600080fd5b91908080601f016020809104026020016040519081016040528093929190818152602001838380828437600081840152601f19601f820116905080830192505050505050509192919290803590602001906401000000008111156101f657600080fd5b82018360208201111561020857600080fd5b8035906020019184600183028401116401000000008311171561022a57600080fd5b91908080601f016020809104026020016040519081016040528093929190818152602001838380828437600081840152601f19601f820116905080830192505050505050509192919290505050610f79565b604051808215151515815260200191505060405180910390f35b3480156102a257600080fd5b506102ab611068565b604051808273ffffffffffffffffffffffffffffffffffffffff1673ffffffffffffffffffffffffffffffffffffffff16815260200191505060405180910390f35b3480156102f957600080fd5b5061030261108e565b604051808273ffffffffffffffffffffffffffffffffffffffff1673ffffffffffffffffffffffffffffffffffffffff16815260200191505060405180910390f35b34801561035057600080fd5b506103596110b4565b6040518080602001828103825283818151815260200191508051906020019080838360005b8381101561039957808201518184015260208101905061037e565b50505050905090810190601f1680156103c65780820380516001836020036101000a031916815260200191505b509250505060405180910390f35b3480156103e057600080fd5b506103e9611152565b6040518082815260200191505060405180910390f35b6104d860008054600181600116156101000203166002900480601f0160208091040260200160405190810160405280929190818152602001828054600181600116156101000203166002900480156104985780601f1061046d57610100808354040283529160200191610498565b820191906000526020600020905b81548152906001019060200180831161047b57829003601f168201915b50505050506040518060400160405280600581526020017f5354415254000000000000000000000000000000000000000000000000000000815250610f79565b801561051f575061051e816040518060400160405280600481526020017f696e697400000000000000000000000000000000000000000000000000000000815250610f79565b5b156105d3576040518060400160405280600881526020017f4f46464552494e470000000000000000000000000000000000000000000000008152506000908051906020019061056f9291906111ab565b50737f181def2e46196a239ac423a2b77e2e6a4d54a6600160006101000a81548173ffffffffffffffffffffffffffffffffffffffff021916908373ffffffffffffffffffffffffffffffffffffffff1602179055506104d2600281905550610f76565b6106ac60008054600181600116156101000203166002900480601f01602080910402602001604051908101604052809291908181526020018280546001816001161561010002031660029004801561066c5780601f106106415761010080835404028352916020019161066c565b820191906000526020600020905b81548152906001019060200180831161064f57829003601f168201915b50505050506040518060400160405280600881526020017f4f46464552494e47000000000000000000000000000000000000000000000000815250610f79565b80156106f357506106f2816040518060400160405280600381526020017f7061790000000000000000000000000000000000000000000000000000000000815250610f79565b5b80156107065750670de0b6b3a764000034145b1561079d576040518060400160405280600881526020017f434845434b494e47000000000000000000000000000000000000000000000000815250600090805190602001906107569291906111ab565b5033600360006101000a81548173ffffffffffffffffffffffffffffffffffffffff021916908373ffffffffffffffffffffffffffffffffffffffff160217905550610f75565b61087660008054600181600116156101000203166002900480601f0160208091040260200160405190810160405280929190818152602001828054600181600116156101000203166002900480156108365780601f1061080b57610100808354040283529160200191610836565b820191906000526020600020905b81548152906001019060200180831161081957829003601f168201915b50505050506040518060400160405280600881526020017f434845434b494e47000000000000000000000000000000000000000000000000815250610f79565b80156108bd57506108bc816040518060400160405280600781526020017f6465636c696e6500000000000000000000000000000000000000000000000000815250610f79565b5b80156109165750600160009054906101000a900473ffffffffffffffffffffffffffffffffffffffff1673ffffffffffffffffffffffffffffffffffffffff163373ffffffffffffffffffffffffffffffffffffffff16145b156109a0576040518060400160405280600881526020017f4445434c494e4544000000000000000000000000000000000000000000000000815250600090805190602001906109669291906111ab565b5061099b670de0b6b3a7640000600360009054906101000a900473ffffffffffffffffffffffffffffffffffffffff16611158565b610f74565b610a7960008054600181600116156101000203166002900480601f016020809104026020016040519081016040528092919081815260200182805460018160011615610100020316600290048015610a395780601f10610a0e57610100808354040283529160200191610a39565b820191906000526020600020905b815481529060010190602001808311610a1c57829003601f168201915b50505050506040518060400160405280600881526020017f4445434c494e4544000000000000000000000000000000000000000000000000815250610f79565b8015610ac05750610abf816040518060400160405280600881526020017f7265696e73657274000000000000000000000000000000000000000000000000815250610f79565b5b8015610b195750600160009054906101000a900473ffffffffffffffffffffffffffffffffffffffff1673ffffffffffffffffffffffffffffffffffffffff163373ffffffffffffffffffffffffffffffffffffffff16145b15610bcd576040518060400160405280600881526020017f4f46464552494e4700000000000000000000000000000000000000000000000081525060009080519060200190610b699291906111ab565b50737f181def2e46196a239ac423a2b77e2e6a4d54a6600160006101000a81548173ffffffffffffffffffffffffffffffffffffffff021916908373ffffffffffffffffffffffffffffffffffffffff1602179055506104d2600281905550610f73565b610ca660008054600181600116156101000203166002900480601f016020809104026020016040519081016040528092919081815260200182805460018160011615610100020316600290048015610c665780601f10610c3b57610100808354040283529160200191610c66565b820191906000526020600020905b815481529060010190602001808311610c4957829003601f168201915b50505050506040518060400160405280600881526020017f434845434b494e47000000000000000000000000000000000000000000000000815250610f79565b8015610ced5750610cec816040518060400160405280600681526020017f6163636570740000000000000000000000000000000000000000000000000000815250610f79565b5b8015610d465750600160009054906101000a900473ffffffffffffffffffffffffffffffffffffffff1673ffffffffffffffffffffffffffffffffffffffff163373ffffffffffffffffffffffffffffffffffffffff16145b15610dff576040518060400160405280600481526020017f534f4c440000000000000000000000000000000000000000000000000000000081525060009080519060200190610d969291906111ab565b50600360009054906101000a900473ffffffffffffffffffffffffffffffffffffffff16600160006101000a81548173ffffffffffffffffffffffffffffffffffffffff021916908373ffffffffffffffffffffffffffffffffffffffff160217905550610f72565b610ed860008054600181600116156101000203166002900480601f016020809104026020016040519081016040528092919081815260200182805460018160011615610100020316600290048015610e985780601f10610e6d57610100808354040283529160200191610e98565b820191906000526020600020905b815481529060010190602001808311610e7b57829003601f168201915b50505050506040518060400160405280600481526020017f534f4c4400000000000000000000000000000000000000000000000000000000815250610f79565b8015610f1f5750610f1e816040518060400160405280600481526020017f6578697400000000000000000000000000000000000000000000000000000000815250610f79565b5b15610f71576040518060400160405280600381526020017f454e44000000000000000000000000000000000000000000000000000000000081525060009080519060200190610f6f9291906111ab565b505b5b5b5b5b5b50565b6000816040516020018082805190602001908083835b60208310610fb25780518252602082019150602081019050602083039250610f8f565b6001836020036101000a03801982511681845116808217855250505050505090500191505060405160208183030381529060405280519060200120836040516020018082805190602001908083835b602083106110245780518252602082019150602081019050602083039250611001565b6001836020036101000a0380198251168184511680821785525050505050509050019150506040516020818303038152906040528051906020012014905092915050565b600360009054906101000a900473ffffffffffffffffffffffffffffffffffffffff1681565b600160009054906101000a900473ffffffffffffffffffffffffffffffffffffffff1681565b60008054600181600116156101000203166002900480601f01602080910402602001604051908101604052809291908181526020018280546001816001161561010002031660029004801561114a5780601f1061111f5761010080835404028352916020019161114a565b820191906000526020600020905b81548152906001019060200180831161112d57829003601f168201915b505050505081565b60025481565b8147106111a7578073ffffffffffffffffffffffffffffffffffffffff166108fc839081150290604051600060405180830381858888f193505050501580156111a5573d6000803e3d6000fd5b505b5050565b828054600181600116156101000203166002900490600052602060002090601f016020900481019282601f106111ec57805160ff191683800117855561121a565b8280016001018555821561121a579182015b828111156112195782518255916020019190600101906111fe565b5b509050611227919061122b565b5090565b61124d91905b80821115611249576000816000905550600101611231565b5090565b9056fea265627a7a72315820b908b351720ea5ed0c2facad65b6794a1aa3a69cc00657a236283f60a0a6923e64736f6c63430005100032",
  "source": "pragma solidity >=0.5.0 <0.7.0;\n\ncontract PurchaseContract {\n\tstring public state = \"START\";\n\taddress payable public owner;\n\tuint public productId;\n\taddress payable public buyer;\n\tfunction() external {}\n\n\tfunction handle(string memory input) public payable {\n\t\tif (isEqual(state, \"START\") && isEqual(input, \"init\")) {\n\t\t\tstate = \"OFFERING\";\n\t\t\t//Entry Activity of new State\n\t\t\towner = 0x7F181DeF2E46196a239aC423a2b77e2E6A4d54a6;\n\t\t\tproductId = 1234;\n\t\t}\n\t\telse if (isEqual(state, \"OFFERING\") && isEqual(input, \"pay\") && msg.value == 1 ether) {\n\t\t\tstate = \"CHECKING\";\n\t\t\t//Entry Activity of new State\n\t\t\tbuyer = msg.sender;\n\t\t}\n\t\telse if (isEqual(state, \"CHECKING\") && isEqual(input, \"decline\") && msg.sender == owner) {\n\t\t\tstate = \"DECLINED\";\n\t\t\t//Entry Activity of new State\n\t\t\ttransfer(1 ether, buyer);\n\t\t}\n\t\telse if (isEqual(state, \"DECLINED\") && isEqual(input, \"reinsert\") && msg.sender == owner) {\n\t\t\tstate = \"OFFERING\";\n\t\t\t//Entry Activity of new State\n\t\t\towner = 0x7F181DeF2E46196a239aC423a2b77e2E6A4d54a6;\n\t\t\tproductId = 1234;\n\t\t}\n\t\telse if (isEqual(state, \"CHECKING\") && isEqual(input, \"accept\") && msg.sender == owner) {\n\t\t\tstate = \"SOLD\";\n\t\t\t//Entry Activity of new State\n\t\t\towner = buyer;\n\t\t}\n\t\telse if (isEqual(state, \"SOLD\") && isEqual(input, \"exit\")) {\n\t\t\tstate = \"END\";\n\t\t}\n\t}\n\n\tfunction isEqual(string memory a, string memory b) public pure returns (bool) {\n\t\treturn (keccak256(abi.encodePacked((a))) == keccak256(abi.encodePacked((b))));\n\t}\n\n\tfunction transfer(uint amount, address payable receiver) private {\n\t\tif (address(this).balance >= amount)\n\t\t\treceiver.transfer(amount);\n\t}\n}\n",
  "sourcePath": "/home/andi/Dokumente/ba/meivsm/contracts/PurchaseContract.sol",
  "compiler": {
    "name": "solc",
    "version": "0.5.16+commit.9c3226ce.Emscripten.clang"
  },
  "schemaVersion": "3.0.23",
  "updatedAt": "2020-02-13T22:07:35.934Z",
  "networkType": "ethereum",
  "devdoc": {
    "methods": {}
  },
  "userdoc": {
    "methods": {}
  }
}