{
  "contractName": "RentalContract",
  "abi": [
    {
      "payable": false,
      "stateMutability": "nonpayable",
      "type": "fallback"
    },
    {
      "constant": true,
      "inputs": [],
      "name": "endDate",
      "outputs": [
        {
          "internalType": "uint256",
          "name": "",
          "type": "uint256"
        }
      ],
      "payable": false,
      "stateMutability": "view",
      "type": "function"
    },
    {
      "constant": true,
      "inputs": [],
      "name": "objectId",
      "outputs": [
        {
          "internalType": "uint256",
          "name": "",
          "type": "uint256"
        }
      ],
      "payable": false,
      "stateMutability": "view",
      "type": "function"
    },
    {
      "constant": true,
      "inputs": [],
      "name": "owner",
      "outputs": [
        {
          "internalType": "address payable",
          "name": "",
          "type": "address"
        }
      ],
      "payable": false,
      "stateMutability": "view",
      "type": "function"
    },
    {
      "constant": true,
      "inputs": [],
      "name": "ownerName",
      "outputs": [
        {
          "internalType": "string",
          "name": "",
          "type": "string"
        }
      ],
      "payable": false,
      "stateMutability": "view",
      "type": "function"
    },
    {
      "constant": true,
      "inputs": [],
      "name": "state",
      "outputs": [
        {
          "internalType": "string",
          "name": "",
          "type": "string"
        }
      ],
      "payable": false,
      "stateMutability": "view",
      "type": "function"
    },
    {
      "constant": true,
      "inputs": [],
      "name": "tenant",
      "outputs": [
        {
          "internalType": "address payable",
          "name": "",
          "type": "address"
        }
      ],
      "payable": false,
      "stateMutability": "view",
      "type": "function"
    },
    {
      "constant": true,
      "inputs": [],
      "name": "tenantName",
      "outputs": [
        {
          "internalType": "string",
          "name": "",
          "type": "string"
        }
      ],
      "payable": false,
      "stateMutability": "view",
      "type": "function"
    },
    {
      "constant": false,
      "inputs": [
        {
          "internalType": "string",
          "name": "input",
          "type": "string"
        }
      ],
      "name": "handle",
      "outputs": [],
      "payable": true,
      "stateMutability": "payable",
      "type": "function"
    },
    {
      "constant": true,
      "inputs": [
        {
          "internalType": "string",
          "name": "a",
          "type": "string"
        },
        {
          "internalType": "string",
          "name": "b",
          "type": "string"
        }
      ],
      "name": "isEqual",
      "outputs": [
        {
          "internalType": "bool",
          "name": "",
          "type": "bool"
        }
      ],
      "payable": false,
      "stateMutability": "pure",
      "type": "function"
    }
  ],
  "bytecode": "0x60806040526040518060400160405280600581526020017f5354415254000000000000000000000000000000000000000000000000000000815250600090805190602001906200005192919062000066565b503480156200005f57600080fd5b5062000115565b828054600181600116156101000203166002900490600052602060002090601f016020900481019282601f10620000a957805160ff1916838001178555620000da565b82800160010185558215620000da579182015b82811115620000d9578251825591602001919060010190620000bc565b5b509050620000e99190620000ed565b5090565b6200011291905b808211156200010e576000816000905550600101620000f4565b5090565b90565b61125280620001256000396000f3fe6080604052600436106100865760003560e01c8063adf0779111610059578063adf07791146103ae578063c19d93fb14610405578063c24a0f8b14610495578063d4d5a06d146104c0578063f63e7db2146104eb57610086565b80631a32916d14610095578063465c41051461015057806365ac2320146102c75780638da5cb5b14610357575b34801561009257600080fd5b50005b61014e600480360360208110156100ab57600080fd5b81019080803590602001906401000000008111156100c857600080fd5b8201836020820111156100da57600080fd5b803590602001918460018302840111640100000000831117156100fc57600080fd5b91908080601f016020809104026020016040519081016040528093929190818152602001838380828437600081840152601f19601f82011690508083019250505050505050919291929050505061057b565b005b34801561015c57600080fd5b506102ad6004803603604081101561017357600080fd5b810190808035906020019064010000000081111561019057600080fd5b8201836020820111156101a257600080fd5b803590602001918460018302840111640100000000831117156101c457600080fd5b91908080601f016020809104026020016040519081016040528093929190818152602001838380828437600081840152601f19601f8201169050808301925050505050505091929192908035906020019064010000000081111561022757600080fd5b82018360208201111561023957600080fd5b8035906020019184600183028401116401000000008311171561025b57600080fd5b91908080601f016020809104026020016040519081016040528093929190818152602001838380828437600081840152601f19601f820116905080830192505050505050509192919290505050610e04565b604051808215151515815260200191505060405180910390f35b3480156102d357600080fd5b506102dc610ef3565b6040518080602001828103825283818151815260200191508051906020019080838360005b8381101561031c578082015181840152602081019050610301565b50505050905090810190601f1680156103495780820380516001836020036101000a031916815260200191505b509250505060405180910390f35b34801561036357600080fd5b5061036c610f91565b604051808273ffffffffffffffffffffffffffffffffffffffff1673ffffffffffffffffffffffffffffffffffffffff16815260200191505060405180910390f35b3480156103ba57600080fd5b506103c3610fb7565b604051808273ffffffffffffffffffffffffffffffffffffffff1673ffffffffffffffffffffffffffffffffffffffff16815260200191505060405180910390f35b34801561041157600080fd5b5061041a610fdd565b6040518080602001828103825283818151815260200191508051906020019080838360005b8381101561045a57808201518184015260208101905061043f565b50505050905090810190601f1680156104875780820380516001836020036101000a031916815260200191505b509250505060405180910390f35b3480156104a157600080fd5b506104aa61107b565b6040518082815260200191505060405180910390f35b3480156104cc57600080fd5b506104d5611081565b6040518082815260200191505060405180910390f35b3480156104f757600080fd5b50610500611087565b6040518080602001828103825283818151815260200191508051906020019080838360005b83811015610540578082015181840152602081019050610525565b50505050905090810190601f16801561056d5780820380516001836020036101000a031916815260200191505b509250505060405180910390f35b61065460008054600181600116156101000203166002900480601f0160208091040260200160405190810160405280929190818152602001828054600181600116156101000203166002900480156106145780601f106105e957610100808354040283529160200191610614565b820191906000526020600020905b8154815290600101906020018083116105f757829003601f168201915b50505050506040518060400160405280600581526020017f5354415254000000000000000000000000000000000000000000000000000000815250610e04565b801561069b575061069a816040518060400160405280600481526020017f696e697400000000000000000000000000000000000000000000000000000000815250610e04565b5b1561079b576040518060400160405280600781526020017f4352454154454400000000000000000000000000000000000000000000000000815250600090805190602001906106eb929190611178565b50737f181def2e46196a239ac423a2b77e2e6a4d54a6600160006101000a81548173ffffffffffffffffffffffffffffffffffffffff021916908373ffffffffffffffffffffffffffffffffffffffff1602179055506040518060400160405280600481526020017f616e6469000000000000000000000000000000000000000000000000000000008152506002908051906020019061078c929190611178565b506104d2600381905550610e01565b61087460008054600181600116156101000203166002900480601f0160208091040260200160405190810160405280929190818152602001828054600181600116156101000203166002900480156108345780601f1061080957610100808354040283529160200191610834565b820191906000526020600020905b81548152906001019060200180831161081757829003601f168201915b50505050506040518060400160405280600781526020017f4352454154454400000000000000000000000000000000000000000000000000815250610e04565b80156108bb57506108ba816040518060400160405280600381526020017f7061790000000000000000000000000000000000000000000000000000000000815250610e04565b5b80156108ce5750674563918244f4000034145b156109d1576040518060400160405280600781526020017f4f4e474f494e47000000000000000000000000000000000000000000000000008152506000908051906020019061091e929190611178565b50731023ae3d76272da1916e680f55bc53d56340b86c600460006101000a81548173ffffffffffffffffffffffffffffffffffffffff021916908373ffffffffffffffffffffffffffffffffffffffff1602179055506040518060400160405280600581526020017f616e646932000000000000000000000000000000000000000000000000000000815250600590805190602001906109bf929190611178565b5062278d004201600681905550610e00565b610aaa60008054600181600116156101000203166002900480601f016020809104026020016040519081016040528092919081815260200182805460018160011615610100020316600290048015610a6a5780601f10610a3f57610100808354040283529160200191610a6a565b820191906000526020600020905b815481529060010190602001808311610a4d57829003601f168201915b50505050506040518060400160405280600781526020017f4f4e474f494e4700000000000000000000000000000000000000000000000000815250610e04565b8015610af15750610af0816040518060400160405280600581526020017f636865636b000000000000000000000000000000000000000000000000000000815250610e04565b5b8015610aff57506006544210155b15610c33576040518060400160405280600781526020017f435245415445440000000000000000000000000000000000000000000000000081525060009080519060200190610b4f929190611178565b50610b84674563918244f40000600160009054906101000a900473ffffffffffffffffffffffffffffffffffffffff16611125565b737f181def2e46196a239ac423a2b77e2e6a4d54a6600160006101000a81548173ffffffffffffffffffffffffffffffffffffffff021916908373ffffffffffffffffffffffffffffffffffffffff1602179055506040518060400160405280600481526020017f616e64690000000000000000000000000000000000000000000000000000000081525060029080519060200190610c24929190611178565b506104d2600381905550610dff565b610d0c60008054600181600116156101000203166002900480601f016020809104026020016040519081016040528092919081815260200182805460018160011615610100020316600290048015610ccc5780601f10610ca157610100808354040283529160200191610ccc565b820191906000526020600020905b815481529060010190602001808311610caf57829003601f168201915b50505050506040518060400160405280600781526020017f4352454154454400000000000000000000000000000000000000000000000000815250610e04565b8015610d535750610d52816040518060400160405280600481526020017f6578697400000000000000000000000000000000000000000000000000000000815250610e04565b5b8015610dac5750600160009054906101000a900473ffffffffffffffffffffffffffffffffffffffff1673ffffffffffffffffffffffffffffffffffffffff163373ffffffffffffffffffffffffffffffffffffffff16145b15610dfe576040518060400160405280600381526020017f454e44000000000000000000000000000000000000000000000000000000000081525060009080519060200190610dfc929190611178565b505b5b5b5b50565b6000816040516020018082805190602001908083835b60208310610e3d5780518252602082019150602081019050602083039250610e1a565b6001836020036101000a03801982511681845116808217855250505050505090500191505060405160208183030381529060405280519060200120836040516020018082805190602001908083835b60208310610eaf5780518252602082019150602081019050602083039250610e8c565b6001836020036101000a0380198251168184511680821785525050505050509050019150506040516020818303038152906040528051906020012014905092915050565b60028054600181600116156101000203166002900480601f016020809104026020016040519081016040528092919081815260200182805460018160011615610100020316600290048015610f895780601f10610f5e57610100808354040283529160200191610f89565b820191906000526020600020905b815481529060010190602001808311610f6c57829003601f168201915b505050505081565b600160009054906101000a900473ffffffffffffffffffffffffffffffffffffffff1681565b600460009054906101000a900473ffffffffffffffffffffffffffffffffffffffff1681565b60008054600181600116156101000203166002900480601f0160208091040260200160405190810160405280929190818152602001828054600181600116156101000203166002900480156110735780601f1061104857610100808354040283529160200191611073565b820191906000526020600020905b81548152906001019060200180831161105657829003601f168201915b505050505081565b60065481565b60035481565b60058054600181600116156101000203166002900480601f01602080910402602001604051908101604052809291908181526020018280546001816001161561010002031660029004801561111d5780601f106110f25761010080835404028352916020019161111d565b820191906000526020600020905b81548152906001019060200180831161110057829003601f168201915b505050505081565b814710611174578073ffffffffffffffffffffffffffffffffffffffff166108fc839081150290604051600060405180830381858888f19350505050158015611172573d6000803e3d6000fd5b505b5050565b828054600181600116156101000203166002900490600052602060002090601f016020900481019282601f106111b957805160ff19168380011785556111e7565b828001600101855582156111e7579182015b828111156111e65782518255916020019190600101906111cb565b5b5090506111f491906111f8565b5090565b61121a91905b808211156112165760008160009055506001016111fe565b5090565b9056fea265627a7a72315820a777e33961d66513d0c4e92a79e9242968a075454f8212a726b186a48510f0d264736f6c63430005100032",
  "source": "pragma solidity >=0.5.0 <0.7.0;\n\ncontract RentalContract {\n\tstring public state = \"START\";\n\taddress payable public owner;\n\tstring public ownerName;\n\tuint public objectId;\n\taddress payable public tenant;\n\tstring public tenantName;\n\tuint public endDate;\n\tfunction() external {}\n\n\tfunction handle(string memory input) public payable {\n\t\tif (isEqual(state, \"START\") && isEqual(input, \"init\")) {\n\t\t\tstate = \"CREATED\";\n\t\t\t//Entry Activity of new State\n\t\t\towner = 0x7F181DeF2E46196a239aC423a2b77e2E6A4d54a6;\n\t\t\townerName = \"andi\";\n\t\t\tobjectId = 1234;\n\t\t}\n\t\telse if (isEqual(state, \"CREATED\") && isEqual(input, \"pay\") && msg.value == 5 ether) {\n\t\t\tstate = \"ONGOING\";\n\t\t\t//Entry Activity of new State\n\t\t\ttenant = 0x1023aE3D76272dA1916E680f55Bc53D56340B86c;\n\t\t\ttenantName = \"andi2\";\n\t\t\tendDate = now + 30 days;\n\t\t}\n\t\telse if (isEqual(state, \"ONGOING\") && isEqual(input, \"check\") && now >= endDate) {\n\t\t\tstate = \"CREATED\";\n\t\t\t//Exit Activity of old State\n\t\t\ttransfer(5 ether, owner);\n\t\t\t//Entry Activity of new State\n\t\t\towner = 0x7F181DeF2E46196a239aC423a2b77e2E6A4d54a6;\n\t\t\townerName = \"andi\";\n\t\t\tobjectId = 1234;\n\t\t}\n\t\telse if (isEqual(state, \"CREATED\") && isEqual(input, \"exit\") && msg.sender == owner) {\n\t\t\tstate = \"END\";\n\t\t}\n\t}\n\n\tfunction isEqual(string memory a, string memory b) public pure returns (bool) {\n\t\treturn (keccak256(abi.encodePacked((a))) == keccak256(abi.encodePacked((b))));\n\t}\n\n\tfunction transfer(uint amount, address payable receiver) private {\n\t\tif (address(this).balance >= amount)\n\t\t\treceiver.transfer(amount);\n\t}\n}\n",
  "sourcePath": "/home/andi/Dokumente/ba/meivsm/contracts/RentalContract.sol",
  "compiler": {
    "name": "solc",
    "version": "0.5.16+commit.9c3226ce.Emscripten.clang"
  },
  "schemaVersion": "3.0.23",
  "updatedAt": "2020-02-13T22:06:33.214Z",
  "networkType": "ethereum",
  "devdoc": {
    "methods": {}
  },
  "userdoc": {
    "methods": {}
  }
}