{
  "contractName": "RentalContractForTests",
  "abi": [
    {
      "payable": false,
      "stateMutability": "nonpayable",
      "type": "fallback"
    },
    {
      "constant": true,
      "inputs": [],
      "name": "endDate",
      "outputs": [
        {
          "internalType": "uint256",
          "name": "",
          "type": "uint256"
        }
      ],
      "payable": false,
      "stateMutability": "view",
      "type": "function"
    },
    {
      "constant": true,
      "inputs": [],
      "name": "objectId",
      "outputs": [
        {
          "internalType": "uint256",
          "name": "",
          "type": "uint256"
        }
      ],
      "payable": false,
      "stateMutability": "view",
      "type": "function"
    },
    {
      "constant": true,
      "inputs": [],
      "name": "owner",
      "outputs": [
        {
          "internalType": "address payable",
          "name": "",
          "type": "address"
        }
      ],
      "payable": false,
      "stateMutability": "view",
      "type": "function"
    },
    {
      "constant": true,
      "inputs": [],
      "name": "ownerName",
      "outputs": [
        {
          "internalType": "string",
          "name": "",
          "type": "string"
        }
      ],
      "payable": false,
      "stateMutability": "view",
      "type": "function"
    },
    {
      "constant": true,
      "inputs": [],
      "name": "state",
      "outputs": [
        {
          "internalType": "string",
          "name": "",
          "type": "string"
        }
      ],
      "payable": false,
      "stateMutability": "view",
      "type": "function"
    },
    {
      "constant": true,
      "inputs": [],
      "name": "tenant",
      "outputs": [
        {
          "internalType": "address payable",
          "name": "",
          "type": "address"
        }
      ],
      "payable": false,
      "stateMutability": "view",
      "type": "function"
    },
    {
      "constant": true,
      "inputs": [],
      "name": "tenantName",
      "outputs": [
        {
          "internalType": "string",
          "name": "",
          "type": "string"
        }
      ],
      "payable": false,
      "stateMutability": "view",
      "type": "function"
    },
    {
      "constant": false,
      "inputs": [
        {
          "internalType": "string",
          "name": "input",
          "type": "string"
        }
      ],
      "name": "handle",
      "outputs": [],
      "payable": true,
      "stateMutability": "payable",
      "type": "function"
    },
    {
      "constant": true,
      "inputs": [
        {
          "internalType": "string",
          "name": "a",
          "type": "string"
        },
        {
          "internalType": "string",
          "name": "b",
          "type": "string"
        }
      ],
      "name": "isEqual",
      "outputs": [
        {
          "internalType": "bool",
          "name": "",
          "type": "bool"
        }
      ],
      "payable": false,
      "stateMutability": "pure",
      "type": "function"
    },
    {
      "constant": false,
      "inputs": [
        {
          "internalType": "uint256",
          "name": "_endDate",
          "type": "uint256"
        }
      ],
      "name": "setEndDate",
      "outputs": [],
      "payable": false,
      "stateMutability": "nonpayable",
      "type": "function"
    }
  ],
  "bytecode": "0x60806040526040518060400160405280600581526020017f5354415254000000000000000000000000000000000000000000000000000000815250600090805190602001906200005192919062000066565b503480156200005f57600080fd5b5062000115565b828054600181600116156101000203166002900490600052602060002090601f016020900481019282601f10620000a957805160ff1916838001178555620000da565b82800160010185558215620000da579182015b82811115620000d9578251825591602001919060010190620000bc565b5b509050620000e99190620000ed565b5090565b6200011291905b808211156200010e576000816000905550600101620000f4565b5090565b90565b6112a280620001256000396000f3fe6080604052600436106100915760003560e01c8063adf0779111610059578063adf07791146103f4578063c19d93fb1461044b578063c24a0f8b146104db578063d4d5a06d14610506578063f63e7db21461053157610091565b80631a32916d146100a05780633784f0001461015b578063465c41051461019657806365ac23201461030d5780638da5cb5b1461039d575b34801561009d57600080fd5b50005b610159600480360360208110156100b657600080fd5b81019080803590602001906401000000008111156100d357600080fd5b8201836020820111156100e557600080fd5b8035906020019184600183028401116401000000008311171561010757600080fd5b91908080601f016020809104026020016040519081016040528093929190818152602001838380828437600081840152601f19601f8201169050808301925050505050505091929192905050506105c1565b005b34801561016757600080fd5b506101946004803603602081101561017e57600080fd5b8101908080359060200190929190505050610e4a565b005b3480156101a257600080fd5b506102f3600480360360408110156101b957600080fd5b81019080803590602001906401000000008111156101d657600080fd5b8201836020820111156101e857600080fd5b8035906020019184600183028401116401000000008311171561020a57600080fd5b91908080601f016020809104026020016040519081016040528093929190818152602001838380828437600081840152601f19601f8201169050808301925050505050505091929192908035906020019064010000000081111561026d57600080fd5b82018360208201111561027f57600080fd5b803590602001918460018302840111640100000000831117156102a157600080fd5b91908080601f016020809104026020016040519081016040528093929190818152602001838380828437600081840152601f19601f820116905080830192505050505050509192919290505050610e54565b604051808215151515815260200191505060405180910390f35b34801561031957600080fd5b50610322610f43565b6040518080602001828103825283818151815260200191508051906020019080838360005b83811015610362578082015181840152602081019050610347565b50505050905090810190601f16801561038f5780820380516001836020036101000a031916815260200191505b509250505060405180910390f35b3480156103a957600080fd5b506103b2610fe1565b604051808273ffffffffffffffffffffffffffffffffffffffff1673ffffffffffffffffffffffffffffffffffffffff16815260200191505060405180910390f35b34801561040057600080fd5b50610409611007565b604051808273ffffffffffffffffffffffffffffffffffffffff1673ffffffffffffffffffffffffffffffffffffffff16815260200191505060405180910390f35b34801561045757600080fd5b5061046061102d565b6040518080602001828103825283818151815260200191508051906020019080838360005b838110156104a0578082015181840152602081019050610485565b50505050905090810190601f1680156104cd5780820380516001836020036101000a031916815260200191505b509250505060405180910390f35b3480156104e757600080fd5b506104f06110cb565b6040518082815260200191505060405180910390f35b34801561051257600080fd5b5061051b6110d1565b6040518082815260200191505060405180910390f35b34801561053d57600080fd5b506105466110d7565b6040518080602001828103825283818151815260200191508051906020019080838360005b8381101561058657808201518184015260208101905061056b565b50505050905090810190601f1680156105b35780820380516001836020036101000a031916815260200191505b509250505060405180910390f35b61069a60008054600181600116156101000203166002900480601f01602080910402602001604051908101604052809291908181526020018280546001816001161561010002031660029004801561065a5780601f1061062f5761010080835404028352916020019161065a565b820191906000526020600020905b81548152906001019060200180831161063d57829003601f168201915b50505050506040518060400160405280600581526020017f5354415254000000000000000000000000000000000000000000000000000000815250610e54565b80156106e157506106e0816040518060400160405280600481526020017f696e697400000000000000000000000000000000000000000000000000000000815250610e54565b5b156107e1576040518060400160405280600781526020017f4352454154454400000000000000000000000000000000000000000000000000815250600090805190602001906107319291906111c8565b50737f181def2e46196a239ac423a2b77e2e6a4d54a6600160006101000a81548173ffffffffffffffffffffffffffffffffffffffff021916908373ffffffffffffffffffffffffffffffffffffffff1602179055506040518060400160405280600481526020017f616e646900000000000000000000000000000000000000000000000000000000815250600290805190602001906107d29291906111c8565b506104d2600381905550610e47565b6108ba60008054600181600116156101000203166002900480601f01602080910402602001604051908101604052809291908181526020018280546001816001161561010002031660029004801561087a5780601f1061084f5761010080835404028352916020019161087a565b820191906000526020600020905b81548152906001019060200180831161085d57829003601f168201915b50505050506040518060400160405280600781526020017f4352454154454400000000000000000000000000000000000000000000000000815250610e54565b80156109015750610900816040518060400160405280600381526020017f7061790000000000000000000000000000000000000000000000000000000000815250610e54565b5b80156109145750674563918244f4000034145b15610a17576040518060400160405280600781526020017f4f4e474f494e4700000000000000000000000000000000000000000000000000815250600090805190602001906109649291906111c8565b50731023ae3d76272da1916e680f55bc53d56340b86c600460006101000a81548173ffffffffffffffffffffffffffffffffffffffff021916908373ffffffffffffffffffffffffffffffffffffffff1602179055506040518060400160405280600581526020017f616e64693200000000000000000000000000000000000000000000000000000081525060059080519060200190610a059291906111c8565b5062278d004201600681905550610e46565b610af060008054600181600116156101000203166002900480601f016020809104026020016040519081016040528092919081815260200182805460018160011615610100020316600290048015610ab05780601f10610a8557610100808354040283529160200191610ab0565b820191906000526020600020905b815481529060010190602001808311610a9357829003601f168201915b50505050506040518060400160405280600781526020017f4f4e474f494e4700000000000000000000000000000000000000000000000000815250610e54565b8015610b375750610b36816040518060400160405280600581526020017f636865636b000000000000000000000000000000000000000000000000000000815250610e54565b5b8015610b4557506006544210155b15610c79576040518060400160405280600781526020017f435245415445440000000000000000000000000000000000000000000000000081525060009080519060200190610b959291906111c8565b50610bca674563918244f40000600160009054906101000a900473ffffffffffffffffffffffffffffffffffffffff16611175565b737f181def2e46196a239ac423a2b77e2e6a4d54a6600160006101000a81548173ffffffffffffffffffffffffffffffffffffffff021916908373ffffffffffffffffffffffffffffffffffffffff1602179055506040518060400160405280600481526020017f616e64690000000000000000000000000000000000000000000000000000000081525060029080519060200190610c6a9291906111c8565b506104d2600381905550610e45565b610d5260008054600181600116156101000203166002900480601f016020809104026020016040519081016040528092919081815260200182805460018160011615610100020316600290048015610d125780601f10610ce757610100808354040283529160200191610d12565b820191906000526020600020905b815481529060010190602001808311610cf557829003601f168201915b50505050506040518060400160405280600781526020017f4352454154454400000000000000000000000000000000000000000000000000815250610e54565b8015610d995750610d98816040518060400160405280600481526020017f6578697400000000000000000000000000000000000000000000000000000000815250610e54565b5b8015610df25750600160009054906101000a900473ffffffffffffffffffffffffffffffffffffffff1673ffffffffffffffffffffffffffffffffffffffff163373ffffffffffffffffffffffffffffffffffffffff16145b15610e44576040518060400160405280600381526020017f454e44000000000000000000000000000000000000000000000000000000000081525060009080519060200190610e429291906111c8565b505b5b5b5b50565b8060068190555050565b6000816040516020018082805190602001908083835b60208310610e8d5780518252602082019150602081019050602083039250610e6a565b6001836020036101000a03801982511681845116808217855250505050505090500191505060405160208183030381529060405280519060200120836040516020018082805190602001908083835b60208310610eff5780518252602082019150602081019050602083039250610edc565b6001836020036101000a0380198251168184511680821785525050505050509050019150506040516020818303038152906040528051906020012014905092915050565b60028054600181600116156101000203166002900480601f016020809104026020016040519081016040528092919081815260200182805460018160011615610100020316600290048015610fd95780601f10610fae57610100808354040283529160200191610fd9565b820191906000526020600020905b815481529060010190602001808311610fbc57829003601f168201915b505050505081565b600160009054906101000a900473ffffffffffffffffffffffffffffffffffffffff1681565b600460009054906101000a900473ffffffffffffffffffffffffffffffffffffffff1681565b60008054600181600116156101000203166002900480601f0160208091040260200160405190810160405280929190818152602001828054600181600116156101000203166002900480156110c35780601f10611098576101008083540402835291602001916110c3565b820191906000526020600020905b8154815290600101906020018083116110a657829003601f168201915b505050505081565b60065481565b60035481565b60058054600181600116156101000203166002900480601f01602080910402602001604051908101604052809291908181526020018280546001816001161561010002031660029004801561116d5780601f106111425761010080835404028352916020019161116d565b820191906000526020600020905b81548152906001019060200180831161115057829003601f168201915b505050505081565b8147106111c4578073ffffffffffffffffffffffffffffffffffffffff166108fc839081150290604051600060405180830381858888f193505050501580156111c2573d6000803e3d6000fd5b505b5050565b828054600181600116156101000203166002900490600052602060002090601f016020900481019282601f1061120957805160ff1916838001178555611237565b82800160010185558215611237579182015b8281111561123657825182559160200191906001019061121b565b5b5090506112449190611248565b5090565b61126a91905b8082111561126657600081600090555060010161124e565b5090565b9056fea265627a7a72315820dfcef7a8da5058488ea624c3196007df8295b9efaa19cf637774f9832e5dc40e64736f6c63430005100032",
  "source": "pragma solidity >=0.5.0 <0.7.0;\n\ncontract RentalContractForTests {\n\tstring public state = \"START\";\n\taddress payable public owner;\n\tstring public ownerName;\n\tuint public objectId;\n\taddress payable public tenant;\n\tstring public tenantName;\n\tuint public endDate;\n\tfunction() external {}\n\n\tfunction handle(string memory input) public payable {\n\t\tif (isEqual(state, \"START\") && isEqual(input, \"init\")) {\n\t\t\tstate = \"CREATED\";\n\t\t\t//Entry Activity of new State\n\t\t\towner = 0x7F181DeF2E46196a239aC423a2b77e2E6A4d54a6;\n\t\t\townerName = \"andi\";\n\t\t\tobjectId = 1234;\n\t\t}\n\t\telse if (isEqual(state, \"CREATED\") && isEqual(input, \"pay\") && msg.value == 5 ether) {\n\t\t\tstate = \"ONGOING\";\n\t\t\t//Entry Activity of new State\n\t\t\ttenant = 0x1023aE3D76272dA1916E680f55Bc53D56340B86c;\n\t\t\ttenantName = \"andi2\";\n\t\t\tendDate = now + 30 days;\n\t\t}\n\t\telse if (isEqual(state, \"ONGOING\") && isEqual(input, \"check\") && now >= endDate) {\n\t\t\tstate = \"CREATED\";\n\t\t\t//Exit Activity of old State\n\t\t\ttransfer(5 ether, owner);\n\t\t\t//Entry Activity of new State\n\t\t\towner = 0x7F181DeF2E46196a239aC423a2b77e2E6A4d54a6;\n\t\t\townerName = \"andi\";\n\t\t\tobjectId = 1234;\n\t\t}\n\t\telse if (isEqual(state, \"CREATED\") && isEqual(input, \"exit\") && msg.sender == owner) {\n\t\t\tstate = \"END\";\n\t\t}\n\t}\n\n\tfunction isEqual(string memory a, string memory b) public pure returns (bool) {\n\t\treturn (keccak256(abi.encodePacked((a))) == keccak256(abi.encodePacked((b))));\n\t}\n\n\tfunction transfer(uint amount, address payable receiver) private {\n\t\tif (address(this).balance >= amount)\n\t\t\treceiver.transfer(amount);\n\t}\n\n\t// FOR TESTS ONLY\n\tfunction setEndDate(uint _endDate) public {\n\t\tendDate = _endDate;\n\t}\n}\n",
  "sourcePath": "/home/andi/Dokumente/ba/meivsm/contracts/RentalContractForTests.sol",
  "compiler": {
    "name": "solc",
    "version": "0.5.16+commit.9c3226ce.Emscripten.clang"
  },
  "schemaVersion": "3.0.23",
  "updatedAt": "2020-02-13T22:06:33.218Z",
  "networkType": "ethereum",
  "devdoc": {
    "methods": {}
  },
  "userdoc": {
    "methods": {}
  }
}