{
  "contractName": "TripInsuranceContract",
  "abi": [
    {
      "payable": false,
      "stateMutability": "nonpayable",
      "type": "fallback"
    },
    {
      "constant": true,
      "inputs": [],
      "name": "company",
      "outputs": [
        {
          "internalType": "address payable",
          "name": "",
          "type": "address"
        }
      ],
      "payable": false,
      "stateMutability": "view",
      "type": "function"
    },
    {
      "constant": true,
      "inputs": [],
      "name": "companyName",
      "outputs": [
        {
          "internalType": "string",
          "name": "",
          "type": "string"
        }
      ],
      "payable": false,
      "stateMutability": "view",
      "type": "function"
    },
    {
      "constant": true,
      "inputs": [],
      "name": "endDate",
      "outputs": [
        {
          "internalType": "uint256",
          "name": "",
          "type": "uint256"
        }
      ],
      "payable": false,
      "stateMutability": "view",
      "type": "function"
    },
    {
      "constant": true,
      "inputs": [],
      "name": "insured",
      "outputs": [
        {
          "internalType": "address payable",
          "name": "",
          "type": "address"
        }
      ],
      "payable": false,
      "stateMutability": "view",
      "type": "function"
    },
    {
      "constant": true,
      "inputs": [],
      "name": "insuredName",
      "outputs": [
        {
          "internalType": "string",
          "name": "",
          "type": "string"
        }
      ],
      "payable": false,
      "stateMutability": "view",
      "type": "function"
    },
    {
      "constant": true,
      "inputs": [],
      "name": "secureSrc",
      "outputs": [
        {
          "internalType": "address payable",
          "name": "",
          "type": "address"
        }
      ],
      "payable": false,
      "stateMutability": "view",
      "type": "function"
    },
    {
      "constant": true,
      "inputs": [],
      "name": "startDate",
      "outputs": [
        {
          "internalType": "uint256",
          "name": "",
          "type": "uint256"
        }
      ],
      "payable": false,
      "stateMutability": "view",
      "type": "function"
    },
    {
      "constant": true,
      "inputs": [],
      "name": "state",
      "outputs": [
        {
          "internalType": "string",
          "name": "",
          "type": "string"
        }
      ],
      "payable": false,
      "stateMutability": "view",
      "type": "function"
    },
    {
      "constant": false,
      "inputs": [
        {
          "internalType": "string",
          "name": "input",
          "type": "string"
        }
      ],
      "name": "handle",
      "outputs": [],
      "payable": true,
      "stateMutability": "payable",
      "type": "function"
    },
    {
      "constant": true,
      "inputs": [
        {
          "internalType": "string",
          "name": "a",
          "type": "string"
        },
        {
          "internalType": "string",
          "name": "b",
          "type": "string"
        }
      ],
      "name": "isEqual",
      "outputs": [
        {
          "internalType": "bool",
          "name": "",
          "type": "bool"
        }
      ],
      "payable": false,
      "stateMutability": "pure",
      "type": "function"
    }
  ],
  "bytecode": "0x60806040526040518060400160405280600581526020017f5354415254000000000000000000000000000000000000000000000000000000815250600090805190602001906200005192919062000066565b503480156200005f57600080fd5b5062000115565b828054600181600116156101000203166002900490600052602060002090601f016020900481019282601f10620000a957805160ff1916838001178555620000da565b82800160010185558215620000da579182015b82811115620000d9578251825591602001919060010190620000bc565b5b509050620000e99190620000ed565b5090565b6200011291905b808211156200010e576000816000905550600101620000f4565b5090565b90565b6117d880620001256000396000f3fe6080604052600436106100915760003560e01c8063c19d93fb11610059578063c19d93fb146103ab578063c24a0f8b1461043b578063eebb136314610466578063f5ec2eed146104bd578063ff0df0b81461054d57610091565b80630b97bc86146100a05780631a32916d146100cb578063465c410514610186578063647e39b7146102fd5780636904c94d14610354575b34801561009d57600080fd5b50005b3480156100ac57600080fd5b506100b56105dd565b6040518082815260200191505060405180910390f35b610184600480360360208110156100e157600080fd5b81019080803590602001906401000000008111156100fe57600080fd5b82018360208201111561011057600080fd5b8035906020019184600183028401116401000000008311171561013257600080fd5b91908080601f016020809104026020016040519081016040528093929190818152602001838380828437600081840152601f19601f8201169050808301925050505050505091929192905050506105e3565b005b34801561019257600080fd5b506102e3600480360360408110156101a957600080fd5b81019080803590602001906401000000008111156101c657600080fd5b8201836020820111156101d857600080fd5b803590602001918460018302840111640100000000831117156101fa57600080fd5b91908080601f016020809104026020016040519081016040528093929190818152602001838380828437600081840152601f19601f8201169050808301925050505050505091929192908035906020019064010000000081111561025d57600080fd5b82018360208201111561026f57600080fd5b8035906020019184600183028401116401000000008311171561029157600080fd5b91908080601f016020809104026020016040519081016040528093929190818152602001838380828437600081840152601f19601f82011690508083019250505050505050919291929050505061136a565b604051808215151515815260200191505060405180910390f35b34801561030957600080fd5b50610312611459565b604051808273ffffffffffffffffffffffffffffffffffffffff1673ffffffffffffffffffffffffffffffffffffffff16815260200191505060405180910390f35b34801561036057600080fd5b5061036961147f565b604051808273ffffffffffffffffffffffffffffffffffffffff1673ffffffffffffffffffffffffffffffffffffffff16815260200191505060405180910390f35b3480156103b757600080fd5b506103c06114a5565b6040518080602001828103825283818151815260200191508051906020019080838360005b838110156104005780820151818401526020810190506103e5565b50505050905090810190601f16801561042d5780820380516001836020036101000a031916815260200191505b509250505060405180910390f35b34801561044757600080fd5b50610450611543565b6040518082815260200191505060405180910390f35b34801561047257600080fd5b5061047b611549565b604051808273ffffffffffffffffffffffffffffffffffffffff1673ffffffffffffffffffffffffffffffffffffffff16815260200191505060405180910390f35b3480156104c957600080fd5b506104d261156f565b6040518080602001828103825283818151815260200191508051906020019080838360005b838110156105125780820151818401526020810190506104f7565b50505050905090810190601f16801561053f5780820380516001836020036101000a031916815260200191505b509250505060405180910390f35b34801561055957600080fd5b5061056261160d565b6040518080602001828103825283818151815260200191508051906020019080838360005b838110156105a2578082015181840152602081019050610587565b50505050905090810190601f1680156105cf5780820380516001836020036101000a031916815260200191505b509250505060405180910390f35b60065481565b6106bc60008054600181600116156101000203166002900480601f01602080910402602001604051908101604052809291908181526020018280546001816001161561010002031660029004801561067c5780601f106106515761010080835404028352916020019161067c565b820191906000526020600020905b81548152906001019060200180831161065f57829003601f168201915b50505050506040518060400160405280600581526020017f535441525400000000000000000000000000000000000000000000000000000081525061136a565b80156107035750610702816040518060400160405280600481526020017f696e69740000000000000000000000000000000000000000000000000000000081525061136a565b5b1561084f576040518060400160405280600781526020017f4352454154454400000000000000000000000000000000000000000000000000815250600090805190602001906107539291906116fe565b50737f181def2e46196a239ac423a2b77e2e6a4d54a6600160006101000a81548173ffffffffffffffffffffffffffffffffffffffff021916908373ffffffffffffffffffffffffffffffffffffffff1602179055506040518060400160405280600381526020017f78797a0000000000000000000000000000000000000000000000000000000000815250600290805190602001906107f49291906116fe565b50732c0716a9d184b42353272a3abcd7084de2f3967b600360006101000a81548173ffffffffffffffffffffffffffffffffffffffff021916908373ffffffffffffffffffffffffffffffffffffffff160217905550611367565b61092860008054600181600116156101000203166002900480601f0160208091040260200160405190810160405280929190818152602001828054600181600116156101000203166002900480156108e85780601f106108bd576101008083540402835291602001916108e8565b820191906000526020600020905b8154815290600101906020018083116108cb57829003601f168201915b50505050506040518060400160405280600781526020017f435245415445440000000000000000000000000000000000000000000000000081525061136a565b801561096f575061096e816040518060400160405280600381526020017f706179000000000000000000000000000000000000000000000000000000000081525061136a565b5b80156109825750674563918244f4000034145b80156109db5750600160009054906101000a900473ffffffffffffffffffffffffffffffffffffffff1673ffffffffffffffffffffffffffffffffffffffff163373ffffffffffffffffffffffffffffffffffffffff16145b15610a31576040518060400160405280600881526020017f53544147454f4e4500000000000000000000000000000000000000000000000081525060009080519060200190610a2b9291906116fe565b50611366565b610b0a60008054600181600116156101000203166002900480601f016020809104026020016040519081016040528092919081815260200182805460018160011615610100020316600290048015610aca5780601f10610a9f57610100808354040283529160200191610aca565b820191906000526020600020905b815481529060010190602001808311610aad57829003601f168201915b50505050506040518060400160405280600881526020017f53544147454f4e4500000000000000000000000000000000000000000000000081525061136a565b8015610b515750610b50816040518060400160405280600381526020017f706179000000000000000000000000000000000000000000000000000000000081525061136a565b5b8015610b645750670de0b6b3a764000034145b15610c6e576040518060400160405280600881526020017f535441474554574f00000000000000000000000000000000000000000000000081525060009080519060200190610bb49291906116fe565b50731023ae3d76272da1916e680f55bc53d56340b86c600460006101000a81548173ffffffffffffffffffffffffffffffffffffffff021916908373ffffffffffffffffffffffffffffffffffffffff1602179055506040518060400160405280600481526020017f616e64690000000000000000000000000000000000000000000000000000000081525060059080519060200190610c559291906116fe565b504260068190555062ed4e004201600781905550611365565b610d4760008054600181600116156101000203166002900480601f016020809104026020016040519081016040528092919081815260200182805460018160011615610100020316600290048015610d075780601f10610cdc57610100808354040283529160200191610d07565b820191906000526020600020905b815481529060010190602001808311610cea57829003601f168201915b50505050506040518060400160405280600881526020017f535441474554574f00000000000000000000000000000000000000000000000081525061136a565b8015610d8e5750610d8d816040518060400160405280600681526020017f7265706f7274000000000000000000000000000000000000000000000000000081525061136a565b5b8015610de75750600360009054906101000a900473ffffffffffffffffffffffffffffffffffffffff1673ffffffffffffffffffffffffffffffffffffffff163373ffffffffffffffffffffffffffffffffffffffff16145b8015610df557506006544210155b8015610e0357506007544211155b15610ec1576040518060400160405280600681526020017f44414d414745000000000000000000000000000000000000000000000000000081525060009080519060200190610e539291906116fe565b50610e88674563918244f40000600460009054906101000a900473ffffffffffffffffffffffffffffffffffffffff166116ab565b610ebc670de0b6b3a7640000600160009054906101000a900473ffffffffffffffffffffffffffffffffffffffff166116ab565b611364565b610f9a60008054600181600116156101000203166002900480601f016020809104026020016040519081016040528092919081815260200182805460018160011615610100020316600290048015610f5a5780601f10610f2f57610100808354040283529160200191610f5a565b820191906000526020600020905b815481529060010190602001808311610f3d57829003601f168201915b50505050506040518060400160405280600881526020017f535441474554574f00000000000000000000000000000000000000000000000081525061136a565b8015610fe15750610fe0816040518060400160405280600581526020017f636865636b00000000000000000000000000000000000000000000000000000081525061136a565b5b8015610fef57506007544210155b15611079576040518060400160405280600a81526020017f4e4f50524f424c454d53000000000000000000000000000000000000000000008152506000908051906020019061103f9291906116fe565b506110746753444835ec580000600160009054906101000a900473ffffffffffffffffffffffffffffffffffffffff166116ab565b611363565b61115260008054600181600116156101000203166002900480601f0160208091040260200160405190810160405280929190818152602001828054600181600116156101000203166002900480156111125780601f106110e757610100808354040283529160200191611112565b820191906000526020600020905b8154815290600101906020018083116110f557829003601f168201915b50505050506040518060400160405280600681526020017f44414d414745000000000000000000000000000000000000000000000000000081525061136a565b80156111995750611198816040518060400160405280600481526020017f657869740000000000000000000000000000000000000000000000000000000081525061136a565b5b156111ef576040518060400160405280600381526020017f454e440000000000000000000000000000000000000000000000000000000000815250600090805190602001906111e99291906116fe565b50611362565b6112c860008054600181600116156101000203166002900480601f0160208091040260200160405190810160405280929190818152602001828054600181600116156101000203166002900480156112885780601f1061125d57610100808354040283529160200191611288565b820191906000526020600020905b81548152906001019060200180831161126b57829003601f168201915b50505050506040518060400160405280600a81526020017f4e4f50524f424c454d530000000000000000000000000000000000000000000081525061136a565b801561130f575061130e816040518060400160405280600481526020017f657869740000000000000000000000000000000000000000000000000000000081525061136a565b5b15611361576040518060400160405280600381526020017f454e4400000000000000000000000000000000000000000000000000000000008152506000908051906020019061135f9291906116fe565b505b5b5b5b5b5b5b50565b6000816040516020018082805190602001908083835b602083106113a35780518252602082019150602081019050602083039250611380565b6001836020036101000a03801982511681845116808217855250505050505090500191505060405160208183030381529060405280519060200120836040516020018082805190602001908083835b6020831061141557805182526020820191506020810190506020830392506113f2565b6001836020036101000a0380198251168184511680821785525050505050509050019150506040516020818303038152906040528051906020012014905092915050565b600360009054906101000a900473ffffffffffffffffffffffffffffffffffffffff1681565b600160009054906101000a900473ffffffffffffffffffffffffffffffffffffffff1681565b60008054600181600116156101000203166002900480601f01602080910402602001604051908101604052809291908181526020018280546001816001161561010002031660029004801561153b5780601f106115105761010080835404028352916020019161153b565b820191906000526020600020905b81548152906001019060200180831161151e57829003601f168201915b505050505081565b60075481565b600460009054906101000a900473ffffffffffffffffffffffffffffffffffffffff1681565b60028054600181600116156101000203166002900480601f0160208091040260200160405190810160405280929190818152602001828054600181600116156101000203166002900480156116055780601f106115da57610100808354040283529160200191611605565b820191906000526020600020905b8154815290600101906020018083116115e857829003601f168201915b505050505081565b60058054600181600116156101000203166002900480601f0160208091040260200160405190810160405280929190818152602001828054600181600116156101000203166002900480156116a35780601f10611678576101008083540402835291602001916116a3565b820191906000526020600020905b81548152906001019060200180831161168657829003601f168201915b505050505081565b8147106116fa578073ffffffffffffffffffffffffffffffffffffffff166108fc839081150290604051600060405180830381858888f193505050501580156116f8573d6000803e3d6000fd5b505b5050565b828054600181600116156101000203166002900490600052602060002090601f016020900481019282601f1061173f57805160ff191683800117855561176d565b8280016001018555821561176d579182015b8281111561176c578251825591602001919060010190611751565b5b50905061177a919061177e565b5090565b6117a091905b8082111561179c576000816000905550600101611784565b5090565b9056fea265627a7a72315820d4f5210d08f79ea2ca0fc267c60d52a5c6085235e22b8eb9fbc690aa5be0f1c064736f6c63430005100032",
  "source": "pragma solidity >=0.5.0 <0.7.0;\n\ncontract TripInsuranceContract {\n\tstring public state = \"START\";\n\taddress payable public company;\n\tstring public companyName;\n\taddress payable public secureSrc;\n\taddress payable public insured;\n\tstring public insuredName;\n\tuint public startDate;\n\tuint public endDate;\n\tfunction() external {}\n\n\tfunction handle(string memory input) public payable {\n\t\tif (isEqual(state, \"START\") && isEqual(input, \"init\")) {\n\t\t\tstate = \"CREATED\";\n\t\t\t//Entry Activity of new State\n\t\t\tcompany = 0x7F181DeF2E46196a239aC423a2b77e2E6A4d54a6;\n\t\t\tcompanyName = \"xyz\";\n\t\t\tsecureSrc = 0x2C0716A9D184b42353272a3AbCD7084DE2f3967B;\n\t\t}\n\t\telse if (isEqual(state, \"CREATED\") && isEqual(input, \"pay\") && msg.value == 5 ether && msg.sender == company) {\n\t\t\tstate = \"STAGEONE\";\n\t\t}\n\t\telse if (isEqual(state, \"STAGEONE\") && isEqual(input, \"pay\") && msg.value == 1 ether) {\n\t\t\tstate = \"STAGETWO\";\n\t\t\t//Entry Activity of new State\n\t\t\tinsured = 0x1023aE3D76272dA1916E680f55Bc53D56340B86c;\n\t\t\tinsuredName = \"andi\";\n\t\t\tstartDate = now;\n\t\t\tendDate = now + 180 days;\n\t\t}\n\t\telse if (isEqual(state, \"STAGETWO\") && isEqual(input, \"report\") && msg.sender == secureSrc && now >= startDate && now <= endDate) {\n\t\t\tstate = \"DAMAGE\";\n\t\t\t//Entry Activity of new State\n\t\t\ttransfer(5 ether, insured);\n\t\t\ttransfer(1 ether, company);\n\t\t}\n\t\telse if (isEqual(state, \"STAGETWO\") && isEqual(input, \"check\") && now >= endDate) {\n\t\t\tstate = \"NOPROBLEMS\";\n\t\t\t//Entry Activity of new State\n\t\t\ttransfer(6 ether, company);\n\t\t}\n\t\telse if (isEqual(state, \"DAMAGE\") && isEqual(input, \"exit\")) {\n\t\t\tstate = \"END\";\n\t\t}\n\t\telse if (isEqual(state, \"NOPROBLEMS\") && isEqual(input, \"exit\")) {\n\t\t\tstate = \"END\";\n\t\t}\n\t}\n\n\tfunction isEqual(string memory a, string memory b) public pure returns (bool) {\n\t\treturn (keccak256(abi.encodePacked((a))) == keccak256(abi.encodePacked((b))));\n\t}\n\n\tfunction transfer(uint amount, address payable receiver) private {\n\t\tif (address(this).balance >= amount)\n\t\t\treceiver.transfer(amount);\n\t}\n}\n",
  "sourcePath": "/home/andi/Dokumente/ba/meivsm/contracts/TripInsuranceContract.sol",
  "compiler": {
    "name": "solc",
    "version": "0.5.16+commit.9c3226ce.Emscripten.clang"
  },
  "schemaVersion": "3.0.23",
  "updatedAt": "2020-02-13T22:39:05.952Z",
  "devdoc": {
    "methods": {}
  },
  "userdoc": {
    "methods": {}
  }
}